:1000000043C1000072C1000070C100006EC1000059
:100010006CC100006AC1000068C1000066C1000038
:1000200064C1000062C1000060C100005EC1000048
:100030005CC100005AC1000058C1000056C1000058
:100040000C94CA090C94E70A50C100004EC100008C
:100050000C94FA0A4AC1000048C10000C3C600005F
:1000600044C10000DAC40000AFC400003EC100007B
:100070003CC100003AC1000038C1000036C1000098
:1000800034C1000032C1000030C100002EC10000A8
:100090002CC100002AC1000028C1000026C10000B8
:1000A00024C100000C9483080C94A0091EC1000018
:1000B0001CC100000C94B309DFC60000FAC70000A1
:1000C00014C1000012C100000C946C080EC10000A5
:1000D0000CC100000AC1000008C1000006C10000F8
:1000E00004C10000C502C902CD02D102D502D90265
:1000F000DD020F0416041D0424042B0443043204FF
:10010000430439045E056105500554055A059805F8
:10011000650569056F05730577057D05810585050D
:1001200098058B058F0593054E414E494E4954590C
:10013000494E46CDCCCC3D0AD7233C17B7D13877B2
:10014000CC2B329595E6241FB14F0A0000204100C8
:1001500000C84200401C4620BCBE4CCA1B0E5AAE12
:10016000C59D7400002100240027002A002D0030C6
:1001700000330001010000040107010A0100002210
:1001800000250028002B002E003100340002010061
:1001900000050108010B01000020002300260029B2
:1001A000002C002F003200000100000301060109AD
:1001B0000105050505070508080808020202020AEC
:1001C0000A080804040404010101010101010103FA
:1001D00003030303030303040707070C0C0C0C0CB5
:1001E0000C0C0C0202020206060606060606060BA8
:1001F0000B0B0B0B0B0B0B0102102020080810201F
:1002000040102040800201020108040201010204A2
:100210000810204080804020100804020180040261
:1002200001804020100804020108040201010204B8
:100230000810204080010204081020408000000ABD
:100240000B02090C0D0E080703040100000000005A
:10025000000000000000000000000000000000009E
:10026000000000000000000000121110000000005B
:10027000000000000000000000000000000000007E
:10028000000000000B17A31111241FBECFEFD1E215
:10029000DEBFCDBF00E00CBF24E0A6E8B2E001C0A5
:1002A0001D92AB32B207E1F712E0A0E0B2E0E8EC59
:1002B000FDE300E00BBF02C007900D92A638B10726
:1002C000D9F711E0C3E4D1E000E006C021970109AD
:1002D000802FFE010E94921CC234D10780E00807E3
:1002E000A9F70E94B8110C94D31E8ACE0895CF921C
:1002F000DF92EF92FF920F931F93CF93DF936C01E6
:100300007A018B01C0E0D0E0CE15DF0589F0D8017D
:100310006D918D01D601ED91FC910190F081E02D60
:10032000C6011995892B11F47E0102C02196ECCFEC
:10033000C701DF91CF911F910F91FF90EF90DF9058
:10034000CF900895089580E090E00895FC01538DCA
:10035000448D252F30E0842F90E0821B930B54179F
:1003600010F0CF96089501970895FC01918D828D2C
:10037000981761F0828DDF01A80FB11D5D968C91F9
:10038000928D9F5F9F73928F90E008958FEF9FEF04
:100390000895FC01918D828D981731F0828DE80FC0
:1003A000F11D858D90E008958FEF9FEF0895FC017A
:1003B000918D228D892F90E0805C9F4F821B910947
:1003C0008F739927089582E093E0F1DF21E0892B74
:1003D00009F420E0822F0895FC01848DDF01A80F2D
:1003E000B11DA35ABF4F2C91848D90E001968F735D
:1003F0009927848FA689B7892C93A089B1898C917C
:1004000080648C93938D848D981306C00288F38941
:10041000E02D80818F7D80830895EF92FF920F936E
:100420001F93CF93DF93EC0181E0888F9B8D8C8DA0
:10043000981305C0E889F989808185FD23C0F62ECF
:100440000B8D10E00F5F1F4F0F731127E02E8C8D67
:10045000E8120BC00FB607FCFACFE889F989808152
:1004600085FFF5CFCE01B8DFF2CF8B8DFE01E80F0F
:10047000F11DE35AFF4FF0820B8FEA89FB898081DF
:10048000806207C0EE89FF896083E889F9898081ED
:100490008064808381E090E0DF91CF911F910F9184
:1004A000FF90EF900895CF93DF93EC01888D882320
:1004B000C1F0EA89FB89808185FD05C0A889B989D9
:1004C0008C9186FD0EC00FB607FCF5CF808185FFAD
:1004D000F2CFA889B9898C9185FFEDCFCE017CDF61
:1004E000E8CFDF91CF91089580E090E0892B19F05B
:1004F0006ADF811125C080E090E0892B41F080E027
:1005000090E0892B21F00E94000081111CC080E046
:1005100090E0892B41F080E090E0892B21F00E944F
:100520000000811113C080E090E0892BA1F080E0F1
:1005300090E0892B81F00E94000081110AC008958B
:100540000E940000D8CF0E940000E1CF0E9400006E
:10055000EACF0C9400000895CF93DF93DC0147703D
:10056000552766277727FA013197CD91DC911197AE
:10057000E730F10530F48827EE58FF4F8F4F0C9489
:10058000921CEC81FD8161E01BC0EC81FD8165E086
:1005900017C0EC81FD8164E013C0EC81FD8166E051
:1005A0000FC0EC81FD8162E00BC0EC81FD816AE04F
:1005B00007C0EC81FD8168E003C0EC81FD8169E04A
:1005C000CD01DF91CF911994CF93DF93EC01CB0153
:1005D000BA0126E030E040E050E00E94761C623034
:1005E00071058105910559F18CF46115710581053D
:1005F0009105F1F06130710581059105C1F5E88142
:10060000F9810480F581E02D65E02DC0643071052D
:100610008105910511F1D4F06530710581059105D1
:1006200031F5E881F9810480F581E02D66E01BC099
:10063000E881F9810480F581E02D64E014C0E8814F
:10064000F9810480F581E02D61E00DC0E881F98138
:100650000480F581E02D63E006C0E881F981048023
:10066000F581E02D62E0CE01DF91CF911994DF9109
:10067000CF9108954370552766277727DC01ED91C8
:10068000FC910480F581E02D423051056105710532
:1006900071F0433051056105710559F04130510544
:1006A0006105710511F065E005C066E003C06AE010
:1006B00001C069E01994CF93DF93EC01CB01BA013B
:1006C00023E030E040E050E00E94761C613071058C
:1006D0008105910581F0623071058105910591F0E8
:1006E000672B682B692BC1F4E881F9810480F581BF
:1006F000E02D64E00DC0E881F9810480F581E02DF2
:1007000061E006C0E881F9810480F581E02D62E0B6
:10071000CE01DF91CF911994DF91CF91089543706D
:10072000552766277727DC01ED91FC910480F58140
:10073000E02D423051056105710571F043305105DE
:100740006105710559F0413051056105710511F0E0
:1007500062E005C063E003C061E001C060E019949D
:10076000CF93DF93EC01E881F9810480F581E02DDE
:100770008A81811102C060E001C062E0CE0119955A
:10078000E881F9810480F581E02D8A81811102C020
:1007900061E001C063E0CE0119958CA59DA5823072
:1007A000910538F0880F991F880F991F05970197B9
:1007B000F1F7E881F9810480F581E02D8A818111CA
:1007C00002C060E001C062E0CE01DF91CF911994D8
:1007D000CF93DF93EC0120E030E0A9016C897D89A3
:1007E0008E899F890E94F51B18161CF4E8A9F9A9A7
:1007F00002C0EAA9FBA9DF91CF9119940F931F932F
:10080000DC0113960C91139710E009301105D8F50F
:10081000F8018827E758FF4F8F4F0C94921CED91F9
:10082000FC9111970084F185E02D29C0ED91FC9198
:1008300011970284F385E02D22C0ED91FC91119770
:100840000484F585E02D1BC0ED91FC911197068481
:10085000F785E02D14C0ED91FC9111970088F18986
:10086000E02D0DC0ED91FC9111970288F389E02DE8
:1008700006C0ED91FC9111970488F589E02DCD011A
:100880001F910F9119941F910F9108950F931F932A
:10089000CF93DF938C01EB01FC0180819181009764
:1008A000B1F0688179816115710579F042815381D8
:1008B0002C813D814217530740F00E94CC1E8C8151
:1008C0009D81F8019583848313C00E942F1D888128
:1008D0009981F801918380838A819B8193838283AC
:1008E0008C819D8195838483198218821B821A8250
:1008F0001D821C82DF91CF911F910F9108950F935C
:100900001F93CF93DF93EC0188819981009729F0A1
:100910002A813B812617370788F48B016F5F7F4F51
:100920000E94C71D009761F0998388831B830A8307
:100930002C813D81232B11F4FC01108281E001C048
:1009400080E0DF91CF911F910F910895EF92FF9278
:100950000F931F93CF93DF93EC017B018A01BA01C0
:10096000CEDF2881398181110DC02115310519F0A3
:10097000C9010E942F1D198218821D821C821B82B0
:100980001A8206C01D830C83B701C9010E94CC1EC8
:10099000CE01DF91CF911F910F91FF90EF900895BD
:1009A000FC01118210821382128215821482611559
:1009B000710549F0FB0101900020E9F73197AF0183
:1009C000461B570BC3CF08951F920F920FB60F927D
:1009D00011240BB60F922F933F934F935F936F9316
:1009E0007F938F939F93AF93BF93EF93FF9382E097
:1009F00093E0F2DCFF91EF91BF91AF919F918F91C6
:100A00007F916F915F914F913F912F910F900BBE0E
:100A10000F900FBE0F901F9018951F920F920FB658
:100A20000F9211240BB60F922F938F939F93EF93F6
:100A3000FF93E0911203F09113038081E09118037A
:100A4000F091190382FD12C0908180911B038F5F8A
:100A50008F7320911C03821751F0E0911B03F0E08B
:100A6000EE5FFC4F958F80931B0301C08081FF9147
:100A7000EF919F918F912F910F900BBE0F900FBE12
:100A80000F901F90189590E0FC013197E231F1052D
:100A900008F04EC08827EE57FF4F8F4F0C94921CE2
:100AA000809180008F7703C0809180008F7D80933C
:100AB0008000089580918000877FF9CF84B58F777B
:100AC00002C084B58F7D84BD08958091B0008F777A
:100AD00003C08091B0008F7D8093B0000895809115
:100AE00090008F7707C0809190008F7D03C0809128
:100AF0009000877F8093900008958091A0008F7769
:100B000007C08091A0008F7D03C08091A000877FE7
:100B10008093A0000895809120018F7707C0809175
:100B200020018F7D03C080912001877F8093200169
:100B300008951F93CF93DF93282F30E0F901E35CF2
:100B4000FD4F8491F901E950FE4FD491F901EF5422
:100B5000FE4FC491CC23C1F0162F811194DFEC2FEE
:100B6000F0E0EE0FFF1FE358FE4FA591B4918FB751
:100B7000F894111105C09C91ED2FE095E92302C076
:100B8000EC91ED2BEC938FBFDF91CF911F910895E6
:100B9000CF92DF92EF92FF920F931F93CF93DF9349
:100BA000FC012381243041F0283031F0233031F032
:100BB000263021F012E003C014E001C013E0EC0184
:100BC0002896E12CF12CC62ED12C01E0C6010E2C6A
:100BD00002C0959587950A94E2F7688180FD6027A9
:100BE000FE0134978081A5DFFFEFEF1AFF0A2196FF
:100BF000E11660F3DF91CF911F910F91FF90EF907D
:100C0000DF90CF900895CF93DF9390E0FC01E950FF
:100C1000FE4F2491FC01EF54FE4F8491882361F133
:100C200090E0880F991FFC01ED59FE4FC591D491BA
:100C3000FC01E358FE4FA591B491611109C09FB723
:100C4000F8948881209582238883EC912E230BC011
:100C5000623061F49FB7F8943881822F80958323A6
:100C60008883EC912E2B2C939FBF06C08FB7F894EE
:100C7000E8812E2B28838FBFDF91CF910895CF93EA
:100C8000DF93FC012381222329F1EC0161E08481BF
:100C9000BADF61E08D81B7DF8B81843011F088305D
:100CA00031F461E08E81AFDF61E08F8106C0833077
:100CB00011F0863019F461E08E81A5DF8FA58F3F9A
:100CC00049F061E0A0DF6EA581E068278FA5DF9184
:100CD000CF912FCFDF91CF910895CF93DF93FC0178
:100CE0002381222399F0EC010190F081E02D048012
:100CF000F581E02D60E019958FA58F3F39F061E017
:100D000082DF6EA58FA5DF91CF9113CFDF91CF91B9
:100D100008953FB7F8948091B8029091B902A091DC
:100D2000BA02B091BB0226B5A89B05C02F3F19F0AF
:100D30000196A11DB11D3FBFBA2FA92F982F88275B
:100D4000820F911DA11DB11DBC01CD0142E0660FB6
:100D5000771F881F991F4A95D1F708958F929F9208
:100D6000AF92BF92CF92DF92EF92FF926B017C0124
:100D7000D0DF4B015C01C114D104E104F104E9F0BE
:100D8000C8DFDC01CB0188199909AA09BB09883E93
:100D90009340A105B10578F321E0C21AD108E1081A
:100DA000F10888EE880E83E0981EA11CB11CC114C6
:100DB000D104E104F10421F7DECFFF90EF90DF9042
:100DC000CF90BF90AF909F908F9008952FB7F894D9
:100DD0006091B4027091B5028091B6029091B70211
:100DE0002FBF08951F920F920FB60F9211242F93C9
:100DF0003F938F939F93AF93BF938091B402909151
:100E0000B502A091B602B091B7023091B30223E0CF
:100E1000230F2D3720F40196A11DB11D05C026E832
:100E2000230F0296A11DB11D2093B3028093B4023B
:100E30009093B502A093B602B093B7028091B80226
:100E40009091B902A091BA02B091BB020196A11D86
:100E5000B11D8093B8029093B902A093BA02B093E7
:100E6000BB02BF91AF919F918F913F912F910F90B6
:100E70000FBE0F901F9018951F920F920FB60F92F2
:100E800011240BB60F92CF92DF92EF92FF920F9345
:100E90001F932F933F934F935F936F937F938F9302
:100EA0009F93AF93BF93EF93FF93209126013091CF
:100EB0002701C9013091210120E42327209321013A
:100EC000D59A2091F5023091F602D901D09B05C048
:100ED0008F3F0FE7900708F4C1C02091210126FF42
:100EE000ADC02091FB023091FC022115310509F4BF
:100EF0004FC02130310509F054C00091AF0210916C
:100F0000B0022091B1023091B2024091F7025091AB
:100F1000F8026091F9027091FA02480F591F6A1F96
:100F20007B1F401B510B620B730B4093F7025093D6
:100F3000F8026093F9027093FA02C090FE02D0901A
:100F4000FF02E0900003F09001034091C402509131
:100F5000C5026091C6027091C7028C019D01041BFD
:100F6000150B260B370BC901B8010E94C6199B014E
:100F7000AC01C701B6010E945C1B0E94C91B6093B3
:100F8000AB027093AC028093AD029093AE024CC062
:100F90008093C4029093C502A093C602B093C70287
:100FA00043C00091AF021091B0022091B102309184
:100FB000B2024091F7025091F8026091F9027091EB
:100FC000FA02480F591F6A1F7B1F401B510B620B0F
:100FD000730B4093F7025093F8026093F9027093F9
:100FE000FA022091FB023091FC0227703327232B59
:100FF000D9F40091C4021091C5022091C60230912B
:10100000C7024091AB025091AC026091AD02709169
:10101000AE026C017D01C01AD10AE20AF30AC416BD
:10102000D506E606F706E8F48091FB029091FC02F3
:1010300001969093FC028093FB0222C09C01205CED
:10104000334630932901209328018093AF02909377
:10105000B002A093B102B093B20212C0D9011196AE
:101060003CCF8093C8029093C902A093CA02B09368
:10107000CB021092730083E28ABB81E08093FD0271
:10108000FF91EF91BF91AF919F918F917F916F9160
:101090005F914F913F912F911F910F91FF90EF9092
:1010A000DF90CF900F900BBE0F900FBE0F901F9050
:1010B00018951F920F920FB60F9211248F931092D2
:1010C000730083E28ABB82E08093FD028F910F90D0
:1010D0000FBE0F901F9018951F920F920FB60F9290
:1010E00011248F939F938091F5029091F6020196BF
:1010F0009093F6028093F5029F918F910F900FBE0F
:101100000F901F9018951F920F920FB60F921124F7
:101110000BB60F92CF92DF92EF92FF920F931F9335
:101120002F933F934F935F936F937F938F939F93EF
:10113000AF93BF93EF93FF932091A6003091A70048
:10114000C9013091A10020E423272093A100CD9A6A
:101150002091E8023091E902D901C89B05C08F3F78
:101160000FE7900708F4C1C02091A10026FFADC091
:101170002091EE023091EF022115310509F44FC0A4
:101180002130310509F054C00091A7021091A80246
:101190002091A9023091AA024091EA025091EB02FB
:1011A0006091EC027091ED02480F591F6A1F7B1F7E
:1011B000401B510B620B730B4093EA025093EB02FE
:1011C0006093EC027093ED02C090F102D090F202B5
:1011D000E090F302F090F4024091BC025091BD0205
:1011E0006091BE027091BF028C019D01041B150B22
:1011F000260B370BC901B8010E94C6199B01AC012F
:10120000C701B6010E945C1B0E94C91B6093A30228
:101210007093A4028093A5029093A6024CC0809381
:10122000BC029093BD02A093BE02B093BF0243C024
:101230000091A7021091A8022091A9023091AA0260
:101240004091EA025091EB026091EC027091ED0244
:10125000480F591F6A1F7B1F401B510B620B730BFA
:101260004093EA025093EB026093EC027093ED021C
:101270002091EE023091EF0227703327232BD9F40F
:101280000091BC021091BD022091BE023091BF02BC
:101290004091A3025091A4026091A5027091A60210
:1012A0006C017D01C01AD10AE20AF30AC416D50600
:1012B000E606F706E8F48091EE029091EF020196BF
:1012C0009093EF028093EE0222C09C01205C334693
:1012D0003093A9002093A8008093A7029093A802BE
:1012E000A093A902B093AA0212C0D90111963CCFD3
:1012F0008093C0029093C102A093C202B093C30234
:101300001092720083E289BB81E08093F002FF912A
:10131000EF91BF91AF919F918F917F916F915F916D
:101320004F913F912F911F910F91FF90EF90DF9080
:10133000CF900F900BBE0F900FBE0F901F9018957F
:101340001F920F920FB60F9211248F93109272007A
:1013500083E286BB82E08093F0028F910F900FBEF4
:101360000F901F9018951F920F920FB60F92112495
:101370008F939F938091E8029091E9020196909358
:10138000E9028093E8029F918F910F900FBE0F901A
:101390001F9018951F920F920FB60F9211240BB643
:1013A0000F92CF92DF92EF92FF920F931F932F93A2
:1013B0003F934F935F936F937F938F939F93AF93DD
:1013C000BF93EF93FF932091860030918700C9016E
:1013D0003091810020E4232720938100B59A209149
:1013E000A1023091A202D901B09B05C08F3F0FE747
:1013F000900708F4C1C02091810026FFADC0209164
:101400009F023091A0022115310509F44FC021300F
:10141000310509F054C00091970210919802209173
:10142000990230919A0240919302509194026091F6
:10143000950270919602480F591F6A1F7B1F401B2F
:10144000510B620B730B4093930250939402609381
:10145000950270939602C0908F02D0909002E09017
:101460009102F090920240919B0250919C026091F7
:101470009D0270919E028C019D01041B150B260B91
:10148000370BC901B8010E94C6199B01AC01C70105
:10149000B6010E945C1B0E94C91B60938B02709373
:1014A0008C0280938D0290938E024CC080939B029D
:1014B00090939C02A0939D02B0939E0243C0009122
:1014C0009702109198022091990230919A024091CE
:1014D0009302509194026091950270919602480F88
:1014E000591F6A1F7B1F401B510B620B730B4093EC
:1014F0009302509394026093950270939602209108
:101500009F023091A00227703327232BD9F400913A
:101510009B0210919C0220919D0230919E0240916D
:101520008B0250918C0260918D0270918E026C0141
:101530007D01C01AD10AE20AF30AC416D506E606EE
:10154000F706E8F480919F029091A0020196909393
:10155000A00280939F0222C09C01205C33463093FE
:101560008900209388008093970290939802A0931B
:101570009902B0939A0212C0D90111963CCF809380
:10158000870290938802A0938902B0938A021092F6
:101590006F0083E286BB81E080938602FF91EF912A
:1015A000BF91AF919F918F917F916F915F914F917B
:1015B0003F912F911F910F91FF90EF90DF90CF906F
:1015C0000F900BBE0F900FBE0F901F9018951F929B
:1015D0000F920FB60F9211248F9310926F0083E237
:1015E00086BB82E0809386028F910F900FBE0F9092
:1015F0001F9018951F920F920FB60F9211248F9380
:101600009F938091A1029091A20201969093A202D1
:101610008093A1029F918F910F900FBE0F901F900A
:1016200018952F923F924F925F926F927F928F9276
:101630009F92AF92BF92CF92DF92EF92FF920F9361
:101640001F93CF93DF9300D01F92CDB7DEB71C015D
:10165000FC01C088D188E288F38884859585A685B9
:10166000B785C81AD90AEA0AFB0A64897589868986
:1016700097899B01AC010E94271A4B015C01F10183
:10168000648D758D868D978D9B01AC010E94F81A33
:101690009B01AC01C501B4010E945C1B0E94C41BEC
:1016A000C114D104E104F104A1F462307105810593
:1016B00091050CF07CC0F10114A215A216A217A28C
:1016C000148A158A168A178A14AA15AA16AA17AA9E
:1016D000FFC0F10104A915A926A937A91C141D04EE
:1016E0001E041F0404F510161106120613064CF40E
:1016F0006C157D058E059F055CF52281211157C073
:1017000027C0011511052105310509F450C06C15DC
:101710007D058E059F050CF04AC0F101828188236A
:1017200009F445C039C01016110612061306FCF460
:101730000027112798010C191D092E093F09601770
:1017400071078207930724F4F1012281222379F1A2
:101750009B01AC0188279927DC01821B930BA40B0A
:10176000B50BF10184AB95ABA6ABB7AB20C00115AF
:10177000110521053105D9F08824992454018C18CC
:101780009D08AE08BF08681579058A059B057CF49D
:10179000F101828181110BC0309520951095019542
:1017A0001F4F2F4F3F4F04AB15AB26AB37ABF101AB
:1017B00084A895A8A6A8B7A881149104A104B1048F
:1017C00091F480AD91ADA2ADB3AD84AF95AFA6AFAE
:1017D000B7AF81E01C141D041E041F040CF080E050
:1017E000F101828341C0F101C4ACD5ACE6ACF7ACE9
:1017F000A7019601C701B6010E94F81A2B013C010E
:10180000C501B4010E94C81920E030E040E850E46E
:101810000E94271A20E030E040E85FE30E94F81AB7
:101820009B01AC01C301B2010E945C1B9B01AC0196
:10183000C701B6010E94F71A7B018C01F101E05C3F
:10184000FF4F60807180C280D3809301A6010E9407
:10185000F51B181614F073018601A701B801F101F8
:1018600044AF55AF66AF77AFFFEF8F1A9F0AAF0A4D
:10187000BF0AF10184AA95AAA6AAB7AA24AD35ADDC
:1018800046AD57ADCA01B90129833A834B835C83C6
:101890000E94C91BF10164A375A386A397A32981A4
:1018A0003A814B815C8160E074E284E799E40E94B4
:1018B0005C1BF101648B758B868B978B22812111C8
:1018C00007C0DC01CB01B058848B958BA68BB78BFE
:1018D0000F900F900F900F90DF91CF911F910F916C
:1018E000FF90EF90DF90CF90BF90AF909F908F9040
:1018F0007F906F905F904F903F902F9008954F9200
:101900005F926F927F928F929F92AF92BF92CF928F
:10191000DF92EF92FF92CF93DF93EC016A017B019C
:1019200020E030E0A901C701B6010E94C21987FF7B
:1019300004C0F7FAF094F7F8F0948C8C9D8CAE8C80
:10194000BF8CA7019601C501B4010E94C21988236A
:1019500009F448C06CA97DA98EA99FA90E94C81945
:101960002B013C01A7019601C501B4010E945C1B3B
:101970009B01AC01C301B2010E94271A0E94C41B43
:101980006CAB7DAB8EAB9FABA701960160E070E0C6
:1019900080E090E40E945C1B0E94FD1B26E53EE077
:1019A0004DE25FE30E94271A20E034E244E759E465
:1019B0000E94271A68AF79AF8AAF9BAFCC8EDD8EBD
:1019C000EE8EFF8ECE01DF91CF91FF90EF90DF90F2
:1019D000CF90BF90AF909F908F907F906F905F90CF
:1019E0004F901FCEDF91CF91FF90EF90DF90CF907F
:1019F000BF90AF909F908F907F906F905F904F902F
:101A000008950E94AB1EFC0180819181009711F026
:101A10000C94FE1760E070E0CB010895BF92CF9266
:101A2000DF92EF92FF920F931F93CF93DF937C018E
:101A30006B01EA0189012417350720F48D2FE90194
:101A4000042F182F6DE472E0C7010E94D004D60164
:101A500014968D919C911597C817D907C8F58017D2
:101A6000910708F48C01D601ED91FC911197E00FDC
:101A7000F11FB08010824D915C91BA016C0F7D1FF7
:101A80006115710561F0FB0101900020E9F73197C4
:101A9000AF01461B570BC7010E94A60413C0F701F4
:101AA00080819181009711F00E942F1DD70111961E
:101AB0001C921E9215961C921E92149713961C92BD
:101AC0001E921297D601ED91FC91E00FF11FB082AA
:101AD000C701DF91CF911F910F91FF90EF90DF90A1
:101AE000CF90BF9008958AE899EAA6ECBFE480936E
:101AF000FE029093FF02A0930003B09301031092A3
:101B0000FD021092FC021092FB021092F70210925A
:101B1000F8021092F9021092FA021092F602109254
:101B2000F50210922001E1E2F1E01082109225010D
:101B30001092240180E49CE990932901809328016C
:101B400081E4808383E28ABB809373000895CF92FF
:101B5000DF92EF92FF928091050490910604A0918C
:101B60000704B0910804892B8A2B8B2B09F450C0F1
:101B7000D0D86B017C018091090490910A04A09156
:101B80000B04B0910C04B701A601481B590B6A0B5A
:101B90007B0B8091050490910604A0910704B091FD
:101BA0000804481759076A077B0790F12091E3035F
:101BB0008091ED039091EE03A091EF03B091F003BB
:101BC000222321F00196A11DB11D03C00197A10997
:101BD000B1098093ED039093EE03A093EF03B093CC
:101BE000F0034091ED035091EE036091EF0370918B
:101BF000F00381EE93E00E94FE03C0920904D092AC
:101C00000A04E0920B04F0920C0481EE93E009DDEB
:101C100020E030E0A9016091F5037091F603809116
:101C2000F7039091F8030E94C219811118C081E056
:101C3000C090F103D090F203E090F303F090F4032E
:101C40004091ED035091EE036091EF037091F0032A
:101C5000C416D506E606F70619F480E001C081E057
:101C6000FF90EF90DF90CF9008958AE899EAA6EC74
:101C7000BFE48093F1029093F202A093F302B09339
:101C8000F4021092F0021092EF021092EE02109203
:101C9000EA021092EB021092EC021092ED02109206
:101CA000E9021092E8021092A000E1EAF0E010824E
:101CB0001092A5001092A40080E49CE99093A900E2
:101CC0008093A80081E4808383E289BB80937200C3
:101CD00008950F931F930091F1031091F203209147
:101CE000F3033091F403061717072807390769F043
:101CF0006093F1037093F2038093F3039093F403E2
:101D000081EE93E01F910F918CCC1F910F9108955C
:101D1000009769F0FC0101900020E9F73197AF01CD
:101D2000481B590BBC0182E093E00C94770180E0E2
:101D300090E008958F929F92AF92BF92CF92DF92E0
:101D4000EF92FF928090F5039090F603A090F70336
:101D5000B090F80320E030E0A901C501B4010E9471
:101D6000C219882309F44AC0A5019401C501B40130
:101D70000E94271A6B017C016091FD037091FE03A4
:101D80008091FF03909100049B01AC010E94F81A1E
:101D90009B01AC01C701B6010E945C1B0E94C41BE1
:101DA0006B017C012FEFC21AD20AE20AF20A20E08C
:101DB00030E0A901C501B4010E94F51B4091ED037B
:101DC0005091EE036091EF037091F00318163CF40C
:101DD000CB01BA016C0D7D1D8E1D9F1D06C0CB0170
:101DE000BA016C197D098E099F09FF90EF90DF9071
:101DF000CF90BF90AF909F908F906BCFFF90EF9060
:101E0000DF90CF90BF90AF909F908F9008958F926A
:101E10009F92AF92BF920F931F93CF93DF93CDB753
:101E2000DEB7A1970FB6F894DEBF0FBECDBF19A2E3
:101E3000423008F44AE08E010F5D1F4F842E912C32
:101E4000A12CB12CA50194010E94541CE62FB901CC
:101E5000CA0101501109EA3014F4E05D01C0E95CE7
:101E6000D801EC93232B242B252B61F7C80150DFDD
:101E7000A1960FB6F894DEBF0FBECDBFDF91CF9114
:101E80001F910F91BF90AF909F908F900895E09118
:101E90000203F09103030190F081E02D682F82E0AE
:101EA00093E01994CF93DF93E7E4F2E08491E1E0CB
:101EB000F2E0D491EBEBF1E0C491CC2391F08111ED
:101EC0000E944305EC2FF0E0EE0FFF1FE956FE4F96
:101ED000A591B491EC91ED2381E090E021F480E0B4
:101EE00002C080E090E0DF91CF9108958F929F92A1
:101EF000AF92BF92CF92DF92EF92FF920F931F9318
:101F0000CF93DF938B01D82FC92F2091F503309108
:101F1000F6034091F7035091F8030E94C2198823F9
:101F200009F460C0C090F903D090FA03E090FB037D
:101F3000F090FC0346015701B7FAB094B7F8B0949B
:101F4000A5019401B8018D2F9C2F0E94C21987FD15
:101F50000DC0A7019601B8018D2F9C2F0E94F51B83
:101F6000181634F06801ED2EFC2E02C075016401D4
:101F700020E030E0A901C701B6010E94C219811119
:101F800009C01092050410920604109207041092E2
:101F9000080420C0A701960160E074E284E799E498
:101FA0000E945C1B9F770E94C91B6093050470937D
:101FB00006048093070490930804C1E020E030E019
:101FC000A901C701B6010E94F51B18160CF0C0E06C
:101FD000C093E303C092F503D092F603E092F703B7
:101FE000F092F803DF91CF911F910F91FF90EF9046
:101FF000DF90CF90BF90AF909F908F900895CF9239
:10200000DF92EF92FF926B017C0120E030E0A901AA
:102010000E94C21987FF04C0F7FAF094F7F8F09411
:10202000A70196016091F9037091FA038091FB0377
:102030009091FC030E94C219882309F456C0C092F3
:10204000F903D092FA03E092FB03F092FC03A7019C
:10205000960160E074E284E799E40E945C1B60935F
:10206000210470932204809323049093240480918C
:10207000150490911604A0911704B0911804181635
:1020800019061A061B068CF56091F5037091F6038C
:102090008091F7039091F8039B01AC010E94271AED
:1020A0006B017C016091FD037091FE038091FF0341
:1020B000909100049B01AC010E94F81A9B01AC01B5
:1020C000C701B6010E945C1B0E94C41B60931504EB
:1020D00070931604809317049093180481EE93E094
:1020E000FF90EF90DF90CF909CCAFF90EF90DF9031
:1020F000CF900895FC018091A3039091A403892BB4
:1021000021F421E0309749F413C080919F0390910E
:10211000A003309731F421E0FC018081882341F055
:1021200006C0BF010E94C31E21E0892B09F020E0F8
:10213000822F08950F931F930E94E60660930A036F
:1021400070930B0380930C0390930D03E0910203B3
:10215000F09103030284F385E02D82E093E019956A
:1021600097FF1FC00E94E60600910A0310910B031F
:1021700020910C0330910D03DC01CB01801B910BEE
:10218000A20BB30B009106031091070320910803E3
:102190003091090380179107A207B307B8F28FEFB8
:1021A0009FEF1F910F9108954F925F926F927F92D0
:1021B0008F929F92AF92BF92CF92DF92EF92FF9257
:1021C0006B017C01B42E9B01AC010E943B1C882357
:1021D00019F089E792E027C026013701E89477F8E3
:1021E0002FEF3FEF4FE75FE7C301B2010E943B1CB7
:1021F00081110DC02FEF3FEF4FE75FE7C301B20141
:102200000E94C21918161CF48DE792E00CC02FEF43
:102210003FEF4FE75FE4C701B6010E94F51B1816B8
:102220007CF481E892E0FF90EF90DF90CF90BF9038
:10223000AF909F908F907F906F905F904F9068CD00
:102240002FEF3FEF4FE75FECC701B6010E94C219C5
:1022500087FDE7CF20E030E0A901C701B6010E9469
:10226000C21987FF08C08DE212DE4C01F7FAF09424
:10227000F7F8F09402C0812C912CA12C60E070E062
:1022800080E09FE3AB1441F020E030E040E251E415
:102290000E945C1BA394F6CF9B01AC01C701B60161
:1022A0000E94F81A2B013C010E94C91B6B017C01A2
:1022B0000E94C6199B01AC01C301B2010E94F71A2A
:1022C0002B013C014AE0C701B601A1DD7C01E80C0D
:1022D000F91CBB2021F08EE2DADDE80EF91EDB2CC2
:1022E000DD2019F120E030E040E251E4C301B20109
:1022F0000E94271A2B013C010E94C91B4B01A12CF3
:10230000B12C4AE0C501B40182DDE80EF91EC50119
:10231000B4010E94C6199B01AC01C301B2010E9425
:10232000F71A2B013C01DA94DBCFC701FF90EF9045
:10233000DF90CF90BF90AF909F908F907F906F90E5
:102340005F904F900895CF93DF93CBEDD3E0269726
:10235000888199810E942F1D83E0CF39D807B9F772
:102360008091DB039091DC03DF91CF910C942F1DC2
:10237000CF93DF93CDB7DEB764970FB6F894DEBF87
:102380000FBECDBF789484B5826084BD84B5816072
:1023900084BD85B5826085BD85B5816085BD809130
:1023A0006E00816080936E001092810080918100A8
:1023B00082608093810080918100816080938100A0
:1023C000809180008160809380008091B100846062
:1023D0008093B1008091B00081608093B0008091C3
:1023E0009100826080939100809191008160809340
:1023F0009100809190008160809390008091A10075
:1024000082608093A1008091A10081608093A100EF
:102410008091A00081608093A00080912101826062
:10242000809321018091210181608093210180911D
:10243000200181608093200180917A0084608093E4
:102440007A0080917A00826080937A0080917A008D
:10245000816080937A0080917A00806880937A000E
:102460001092C100E0911203F091130382E0808387
:10247000E0910E03F0910F031082E0911003F091B0
:10248000110380E1808310921A03E0911603F0910A
:10249000170386E08083E0911403F0911503808197
:1024A00080618083E0911403F0911503808188603E
:1024B0008083E0911403F09115038081806880830C
:1024C000E0911403F091150380818F7D808382E376
:1024D00090E0A0E0B0E08093060390930703A09300
:1024E0000803B0930903C1DBFEDA62E08AE00E94D0
:1024F000030660E086E30E9403066EE170E080E080
:1025000090E00E94AE06222423949E012F5F3F4F4D
:10251000790196E0392E0E94E6066093E4027093FA
:10252000E5028093E6029093E7028090F103909099
:10253000F203A090F303B090F4030091ED03109127
:10254000EE032091EF033091F00380169106A2066E
:10255000B30619F02092E30202C01092E302009148
:10256000DF021091E0022091E1023091E202DC01F1
:10257000CB01801B910BA20BB30B883E9340A105AE
:10258000B1050CF450C171DB8091F002813089F00B
:10259000D8F3823009F062C080E090E0A0E8BFEBA1
:1025A0008093D3029093D402A093D502B093D60225
:1025B00055C06091EA027091EB028091EC0290911B
:1025C000ED028090C0029090C102A090C202B09033
:1025D000C3022091BC023091BD024091BE025091D5
:1025E000BF022D873E874F87588BD0D62B013C01E9
:1025F000C501B4012D853E854F855889621B730B3B
:10260000840B950BC3D69B01AC01C301B2010E94A0
:102610005C1B4B015C019B01AC0119D72DE33AE037
:1026200047EB5FEB14D72B013C012CE53FE846E577
:1026300053E4C501B4010BD79B01AC01C301B20146
:10264000D7D723E333E349E852E4D1D76093D302E9
:102650007093D4028093D5029093D60278DA43DA4D
:102660008091FD02813089F0D8F3823009F061C099
:1026700080E090E0A0E8BFEB8093CF029093D0027F
:10268000A093D102B093D20254C06091F70270912E
:10269000F8028091F9029091FA028090C80290901D
:1026A000C902A090CA02B090CB022091C40230911E
:1026B000C5024091C6025091C7022D873E874F87C1
:1026C000588B64D62B013C01C501B4012D853E8594
:1026D0004F855889621B730B840B950B57D69B0152
:1026E000AC01C301B201E8D74B015C019B01AC0115
:1026F000AED62DE33AE047EB5FEBA9D62B013C01C8
:102700002CE53FE846E553E4C501B401A0D69B01A2
:10271000AC01C301B2016CD723E333E349E852E4CF
:1027200066D76093CF027093D0028093D1029093CA
:10273000D20280917B00877F80937B0090E490930E
:102740007C0080917A00806480937A0080917A0086
:1027500086FDFCCF609178008091790070E0782B45
:10276000072E000C880B990B13D62AE038E240EABA
:102770005BE36DD66093DB027093DC028093DD0235
:102780009093DE0220E030E040E250E430D76093E6
:10279000D7027093D8028093D9029093DA028EE325
:1027A00092E0B6DA6091D3027091D4028091D502A2
:1027B0009091D60242E0F8DC82E492E0A9DA6091DE
:1027C000CF027091D0028091D1029091D20242E06A
:1027D000EBDC87E492E09CDA6091D7027091D8023A
:1027E0008091D9029091DA0242E0DEDC8BE492E043
:1027F0008FDA1092D3021092D4021092D502109266
:10280000D6021092CF021092D0021092D1021092F2
:10281000D2020E94E6066093DF027093E00280938A
:10282000E1029093E20282E093E00E94D701892BBB
:1028300009F49CC16DE472E0C7010E94D0047ADC07
:1028400097FD1DC08A309105D1F08F8318860D81C8
:102850001E810F5F1F4FB801C7010E947F048823AC
:1028600071F329813A818D819E81BE01695F7F4F1D
:10287000820F931F0E94CC1E1E830D83E0CFB701F1
:102880008BED93E00E94460489819A810E942F1D5E
:1028900018861F821A8619861C861B866091DB03A8
:1028A0007091DC036115710541F04091DF03509197
:1028B000E003CE0107960E94A60440E050E000E04D
:1028C00010E0AB84BC844A155B0598F48F80988433
:1028D0006AE370E0C401840F951F4B8B5C8B0E94F0
:1028E000B81E4B895C89009721F06C01C818D90883
:1028F00003C0CC24CA94DC2CCA0101968C159D051A
:1029000004F59601BE01695F7F4FC70187D8309EED
:10291000C001319E900D112481569C4F8E159F054C
:1029200019F0B7010E94460489819A810E942F1DE7
:102930000F5F1F4F0630110514F5A6014F5F5F4F63
:10294000C0CFD7FEBECF06301105CCF49501BE0135
:10295000695F7F4FC70162D8309EC001319E900DE4
:10296000112481569C4F8E159F0519F0B7010E94C6
:10297000460489819A810E942F1D0F5F1F4F10937B
:10298000CE020093CD028F8198850E942F1D8EE488
:1029900092E0B0DB8823D9F001301105C1F485E75E
:1029A00092E0B6D97FDA4C01990FAA08BB08B7FEAE
:1029B000E2C08DE26CDA66277727CB0168197909C6
:1029C0008A099B094AE023DA8BE492E0A1D981E5E8
:1029D00092E090DB882309F456C08091CD0290915B
:1029E000CE02049709F04FC0CAC01092ED031092B6
:1029F000EE031092EF031092F0031092F103109285
:102A0000F2031092F3031092F40310921504109243
:102A100016041092170410921804109205041092D4
:102A2000060410920704109208041092F503109205
:102A3000F6031092F7031092F8038090080290902A
:102A40000902A0900A02B0900B02C501B401D7DAC6
:102A5000C501B4014BDA8090040290900502A09069
:102A60000602B090070220E030E0A901C501B401E0
:102A700089D4882331F0B501A40181EE93E00E944E
:102A80007F0C2092CC0285E592E034DB8823C9F0EC
:102A90008091CD029091CE02029799F48091A50386
:102AA0009091A603009709F481C1ABD22091CC028A
:102AB000222309F472C1072E000C880B990B09D947
:102AC00046D889E692E016DB8823F9F08091CD02A2
:102AD0009091CE020297C9F48091A5039091A6032C
:102AE000009709F481C18DD22091CC02222309F4F0
:102AF00072C12091E302072E000C880B990B211163
:102B000059C1E7D824D88111FDCF8DE692E0F2DAE1
:102B1000882339F08091CD029091CE02029709F47A
:102B200067C181E792E0E6DA882301F18091CD0266
:102B30009091CE020297D1F485EA93E00E94030DB2
:102B40004B015C01609304027093050280930602BE
:102B50009093070220E030E0A90114D4882331F0DB
:102B6000B501A40181EE93E00E947F0C0E94A70DA5
:102B70000E947402D0CC4AE0C501B40124CF81EB9D
:102B800093E00E94030D2B013C018BEA93E00E942D
:102B9000030D4B015C018091A5039091A603009762
:102BA00009F4F7C02ED28B018091E3028111C2D8C3
:102BB000C301B20124DA20E030E0A901C501B4016B
:102BC000E1D3882331F0B501A40181EE93E00E94A6
:102BD0007F0C68D9892B49F12091000230910102C4
:102BE0004091020250910302CA01B901298B3A8B2C
:102BF0004B8B5C8B6ED829893A894B895C89DA01C9
:102C0000C9010196A11DB11D80930002909301029C
:102C1000A0930202B09303020E94A70D65E070E04A
:102C200080E090E00E94AE06D4CF1092ED031092A7
:102C3000EE031092EF031092F0031092F103109242
:102C4000F2031092F3031092F40310921504109201
:102C50001604109217041092180410920504109292
:102C6000060410920704109208041092F5031092C3
:102C7000F6031092F7031092F803C301B201BFD913
:102C800020E030E0A901C501B4017CD3882331F0F4
:102C9000B501A40181EE93E00E947F0C21E030E0B9
:102CA00040E050E020930002309301024093020282
:102CB00050930302F7D8892B29F560910002709197
:102CC0000102809102029091030203D80E94A70D95
:102CD0008091000290910102A0910202B091030242
:102CE0000197A109B1098093000290930102A0937A
:102CF0000202B093030265E070E080E090E00E9481
:102D0000AE06D8CF1092ED031092EE031092EF03AF
:102D10001092F0031092F1031092F2031092F30359
:102D20001092F403109215041092160410921704D6
:102D300010921804109205041092060410920704D1
:102D4000109208041092F5031092F6031092F70304
:102D50001092F803B801110F880B990B0E94690EAD
:102D60004091F1035091F2036091F3037091F403E9
:102D70008091ED039091EE03A091EF03B091F003E9
:102D8000481759076A077B0709F42FCE0E94A70D41
:102D9000E7CF60E070E0CB0106CF8AE592E00E94C9
:102DA000880E8BE492E00E94880E8BCE60E070E08B
:102DB000CB017CCE698B7A8B8B8B9C8B0E949A0E7D
:102DC00069897A898B899C890E94690E0E94A70D66
:102DD0008111FCCF9ACE8AE592E00E94880E8BE4A6
:102DE00092E00E94880E91CE60E070E0CB017CCE34
:102DF00085EA93E00E94030D4B015C016093080299
:102E00007093090280930A0290930B02F8D8C501CF
:102E1000B4016CD886CECF93DF9310920503109245
:102E2000040388EE93E0A0E0B0E080930603909363
:102E30000703A0930803B093090386E192E09093FF
:102E400003038093020385EC90E090930F0380933B
:102E50000E0384EC90E0909311038093100380ECB8
:102E600090E0909313038093120381EC90E0909391
:102E700015038093140382EC90E0909317038093E2
:102E8000160386EC90E09093190380931803109238
:102E90001B0310921C0310921D0310921E0388E264
:102EA00092E09093E2038093E10381E08093E40356
:102EB0001092ED031092EE031092EF031092F003C4
:102EC0001092F1031092F2031092F3031092F403A4
:102ED0001092F5031092F6031092F7031092F80384
:102EE00080E090E0A0E8BFE38093F9039093FA03B9
:102EF000A093FB03B093FC031092FD031092FE031A
:102F00001092FF0310920004809301049093020436
:102F1000A0930304B09304041092050410920604D5
:102F2000109207041092080421E030E030930E0460
:102F300020930D042FEF2093100410920904109297
:102F40000A0410920B0410920C042BE02093E5036A
:102F50002CE02093E60324E02093E70325E0209370
:102F6000E80310920F0410921504109216041092A8
:102F70001704109218041092190410921A04109257
:102F80001B0410921C0410921D0410921E04109237
:102F90001F04109220048093210490932204A09394
:102FA0002304B09324041092E3031092E9031092D7
:102FB000EA031092EB031092EC0381EE93E00E947F
:102FC0003F0640E050E060E87FE381EE93E00E943E
:102FD0007F0C6DE472E08BED93E00E94D004CFE9AA
:102FE000D3E06DE472E0CE010E94D004269683E027
:102FF000CB3DD807B1F7DF91CF91089566277727AA
:103000003BC01F93FC0199278827BC01E8941191CC
:103010001032E9F3193010F01E30C8F31B3249F0BA
:103020001D3241F4689405C012D0610F711D811DDD
:10303000911D119110531A30B8F33EF4909580957C
:10304000709561957F4F8F4F9F4F1F910895592F16
:10305000482F372F262F660F771F881F991F660F5F
:10306000771F881F991F620F731F841F951F660F9C
:10307000771F881F991F08956F927F928F929F925A
:10308000AF92BF92CF92DF92EF92FF920F931F9376
:10309000CF93DF93EC017B016115710519F0DB0122
:1030A0008D939C938E010F5F1F4F7880872D90E04A
:1030B00049D1892B11F0E801F5CFBDE27B1205C0A3
:1030C0000F5F1F4F7980C1E008C0EBE27E1204C0A1
:1030D0008E010E5F1F4F7980C0E06801F1E0CF1ACA
:1030E000D10843E050E060E371E0C60133D1892BA1
:1030F000E9F4680122E0C20ED11C45E050E06BE229
:1031000071E0C60127D1892B21F4680187E0C80E40
:10311000D11CE114F10419F0D701CD92DC92C11158
:10312000F9C060E070E080E89FE7FDC043E050E058
:1031300068E271E0C6010ED1892B51F4E114F1046B
:1031400009F4EDC00E5F1F4FF70111830083E7C044
:10315000680160E070E0CB0100E010E0F601D0ED26
:10316000D70DDA3050F52C2F2260622E2C2F2870CC
:10317000C2FF05C0211127C00F5F1F4F24C02223AB
:1031800011F001501109A5E0B0E09B01AC0116D28D
:103190004B015C01880C991CAA1CBB1CC501B40125
:1031A0006D0F711D811D911D6839A9E97A078A0784
:1031B000A9E19A0740F0C66005C0DE3F51F4C3FDA7
:1031C00044C0C8606C2EBFEFCB1ADB0A7080C62DDE
:1031D000C5CF2D2F2F7D2531C1F540814D3211F402
:1031E000C06106C04B3221F0319621E030E006C0CC
:1031F0003296D60111964C9122E030E0A0EDA40F5A
:10320000AA3018F0E21BF30B20C040E050E0403839
:10321000BCE05B075CF49A01220F331F220F331FBF
:10322000420F531F440F551F4A0F511D3196DF01A6
:1032300011972C91A0EDA20FAA3048F3C4FF03C050
:10324000519541955109040F151FC1FF07C0E114A5
:10325000F10421F03197D701ED93FC9397D0C3701F
:10326000C33019F06B017C0106C06B017C01F7FAD9
:10327000F094F7F8F09420E030E0A901C701B6011E
:1032800081D0882309F443C017FF06C0119501952A
:103290001109C7E4D1E002C0CFE5D1E05E01B8E199
:1032A000AB1AB1084601BE2DAF2D90E2E92EF12CEC
:1032B0000E151F057CF0FE01259135914591549125
:1032C000B4018B2F9A2FC3D04B01B82FA92F0E1901
:1032D0001F09EECF2497F594E794CA15DB0541F753
:1032E0006401EB2EFA2E8E2D880F8F2D881F8F3FB5
:1032F00041F020E030E0A901C701B60143D08111BF
:1033000006C082E290E09093260480932504C701D2
:10331000B60109C060E070E080E89FEF04C060E0A3
:1033200070E080EC9FE7DF91CF911F910F91FF90AC
:10333000EF90DF90CF90BF90AF909F908F907F9055
:103340006F9008959111E6C0803219F08950855030
:10335000D0F70895FB01DC014150504088F08D9179
:1033600081341CF08B350CF4805E659161341CF067
:103370006B350CF4605E861B611171F3990B089537
:10338000881BFCCF40D008F481E00895E89409C080
:1033900097FB3EF490958095709561957F4F8F4F88
:1033A0009F4F9923A9F0F92F96E9BB279395F6959E
:1033B000879577956795B795F111F8CFFAF4BB0F1C
:1033C00011F460FF1BC06F5F7F4F8F4F9F4F16C080
:1033D000882311F096E911C0772321F09EE8872F0A
:1033E000762F05C0662371F096E8862F70E060E0C6
:1033F0002AF09A95660F771F881FDAF7880F96953F
:10340000879597F90895990F0008550FAA0BE0E8E2
:10341000FEEF16161706E807F907C0F01216130696
:10342000E407F50798F0621B730B840B950B39F4D6
:103430000A2661F0232B242B252B21F408950A263C
:1034400009F4A140A6958FEF811D811D08950BD031
:103450007BC06CD028F071D018F0952309F05DC0C6
:1034600062C01124A5C081D0A0F3959FD1F3950F20
:1034700050E0551F629FF001729FBB27F00DB11DF8
:10348000639FAA27F00DB11DAA1F649F6627B00D88
:10349000A11D661F829F2227B00DA11D621F739F71
:1034A000B00DA11D621F839FA00D611D221F749F7F
:1034B0003327A00D611D231F849F600D211D822FC6
:1034C000762F6A2F11249F5750408AF0E1F088230D
:1034D0004AF0EE0FFF1FBB1F661F771F881F91501A
:1034E0005040A9F79E3F510570F017C061C05F3F83
:1034F000ECF3983EDCF3869577956795B795F7954D
:10350000E7959F5FC1F7FE2B880F911D96958795D4
:1035100097F9089599278827089597F99F6780E874
:1035200070E060E008959FEF80EC089500240A9415
:103530001616170618060906089500240A9412168E
:103540001306140605060895092E0394000C11F4C1
:10355000882352F0BB0F40F4BF2B11F460FF04C06E
:103560006F5F7F4F8F4F9F4F089557FD9058440FC7
:10357000551F59F05F3F71F04795880F97FB991FD2
:1035800061F09F3F79F0879508951216130614068F
:10359000551FF2CF4695F1DF08C01616170618061C
:1035A000991FF1CF86957105610508940895E894F7
:1035B000BB2766277727CB0197F9089509D0A59FE8
:1035C000900DB49F900DA49F800D911D112408951E
:1035D000A29FB001B39FC001A39F700D811D112454
:1035E000911DB29F700D811D1124911D0895505899
:1035F000BB27AA270ED0A8CF99DF30F09EDF20F09E
:1036000031F49F3F11F41EF48ECF0EF4E095E7FBEA
:1036100084CFE92FAADF80F3BA1762077307840704
:10362000950718F071F49EF5C2CF0EF4E0950B2EBD
:10363000BA2FA02D0B01B90190010C01CA01A00104
:103640001124FF27591B99F0593F50F4503E68F15F
:103650001A16F040A22F232F342F4427585FF3CFA0
:10366000469537952795A795F0405395C9F77EF471
:103670001F16BA0B620B730B840BBAF09150A1F0BA
:10368000FF0FBB1F661F771F881FC2F70EC0BA0F40
:10369000621F731F841F48F4879577956795B795C8
:1036A000F7959E3F08F0B3CF9395880F08F09927C0
:1036B000EE0F9795879508950CD046CF3EDF40F0EA
:1036C00035DF30F021F45F3F19F027CF511170CF73
:1036D0002ACF4BDF98F39923C9F35523B1F3951BF8
:1036E000550BBB27AA2762177307840738F09F5F23
:1036F0005F4F220F331F441FAA1FA9F333D00E2E92
:103700003AF0E0E830D091505040E695001CCAF7FE
:1037100029D0FE2F27D0660F771F881FBB1F2617C3
:1037200037074807AB07B0E809F0BB0B802DBF0196
:10373000FF2793585F4F2AF09E3F510568F0EDCE6A
:1037400037CF5F3FECF3983EDCF38695779567952E
:10375000B795F7959F5FC9F7880F911D9695879547
:1037600097F90895E1E0660F771F881FBB1F621766
:1037700073078407BA0720F0621B730B840BBA0B24
:10378000EE1F88F7E095089504D06894B11110CF2A
:103790000895F3DE88F09F5790F0B92F9927B7511D
:1037A000A0F0D1F0660F771F881F991F1AF0BA9505
:1037B000C9F712C0B13081F0FADEB1E00895F7CE5A
:1037C000672F782F8827B85F39F0B93FCCF38695FB
:1037D00077956795B395D9F73EF490958095709558
:1037E00061957F4F8F4F9F4F08950DDE08F48FEF47
:1037F000089511F40EF497CE42C0BFDED0F39923A2
:10380000D9F3CEF39F57550B87FF47D00024A0E68E
:1038100040EA900180585695979528F4805C660F91
:10382000771F881F20F026173707480730F4621BE0
:10383000730B840B202931294A2BA69517940794E2
:10384000202531254A2758F7660F771F881F20F05B
:1038500026173707480730F4620B730B840B200DD3
:10386000311D411DA09581F7B901842F9158880F12
:10387000969587950895C7DD880B990B08959F3F0E
:1038800031F0915020F4879577956795B795880F1B
:10389000911D9695879597F9089591505040660F20
:1038A000771F881FD2F70895A1E21A2EAA1BBB1B0F
:1038B000FD010DC0AA1FBB1FEE1FFF1FA217B307FC
:1038C000E407F50720F0A21BB30BE40BF50B661F12
:1038D000771F881F991F1A9469F7609570958095D6
:1038E00090959B01AC01BD01CF010895052E97FB7A
:1038F00016F400940FD057FD05D0D6DF07FC02D098
:1039000046F408C050954095309521953F4F4F4F54
:103910005F4F089590958095709561957F4F8F4F7B
:103920009F4F0895EE0FFF1F881F8BBF0790F691E2
:10393000E02D1994CF93DF938230910510F482E04B
:1039400090E0E0912904F0912A0420E030E0C0E00A
:10395000D0E0309711F14081518148175907C0F0EC
:103960004817590761F482819381209719F09B834E
:103970008A832BC090932A048093290426C02115A2
:10398000310519F04217530718F49A01BE01DF01FF
:10399000EF010280F381E02DDCCF2115310509F123
:1039A000281B390B2430310590F412968D919C918F
:1039B00013976115710521F0FB019383828304C085
:1039C00090932A0480932904FD01329644C0FD019E
:1039D000E20FF31F81939193225031092D933C9371
:1039E0003AC02091270430912804232B41F42091E0
:1039F0000E0230910F023093280420932704209167
:103A00000C0230910D022115310541F42DB73EB75E
:103A10004091100250911102241B350BE0912704B4
:103A2000F0912804E217F307A0F42E1B3F0B281790
:103A3000390778F0AC014E5F5F4F2417350748F027
:103A40004E0F5F1F50932804409327048193919356
:103A500002C0E0E0F0E0CF01DF91CF9108950F9335
:103A60001F93CF93DF93009709F48CC0FC0132972A
:103A7000138212820091290410912A040115110564
:103A800081F420813181820F931F2091270430918E
:103A900028042817390779F5F0932804E0932704C0
:103AA00071C0D80140E050E0AE17BF0750F4129645
:103AB0002D913C911397AD012115310509F1D901E3
:103AC000F3CF9D01DA013383228360817181860FF8
:103AD000971F8217930769F4EC0128813981260F1B
:103AE000371F2E5F3F4F318320838A819B819383D1
:103AF0008283452B29F4F0932A04E093290442C0E1
:103B00001396FC93EE931297ED01499159919E0102
:103B1000240F351FE217F30771F480819181840F20
:103B2000951F029611969C938E9382819381139692
:103B30009C938E931297E0E0F0E0D80112968D915D
:103B40009C911397009719F0F8018C01F6CF8D9195
:103B50009C9198012E5F3F4F820F931F2091270465
:103B6000309128042817390769F4309729F4109206
:103B70002A041092290402C013821282109328048E
:103B800000932704DF91CF911F910F9108956F92B9
:103B90007F928F929F92AF92BF92CF92DF92EF92DD
:103BA000FF920F931F93CF93DF93EC01009781F463
:103BB000CB01DF91CF911F910F91FF90EF90DF909C
:103BC000CF90BF90AF909F908F907F906F90B2CE2C
:103BD000FC01E60FF71F9C0122503109E217F307A1
:103BE00008F4A8C0D9010D911C9111970617170769
:103BF000A8F00530110508F49BC0C801049786178A
:103C0000970708F495C002501109061B170B019382
:103C100011936D937C93CF0122DF8AC05B01A01AC0
:103C2000B10A4C01800E911EA0912904B0912A0482
:103C300040E050E0E12CF12C109709F44AC0A8159F
:103C4000B905D1F56D907C901197630182E0C80EA3
:103C5000D11CCA14DB0480F1A3014A195B096A0173
:103C600082E0C80ED11C1296BC9012971396AC91AC
:103C7000B5E0CB16D10440F0B282A38351834083D8
:103C8000D9016D937C930AC00E5F1F4FC301800F53
:103C9000911FF90191838083EB2DFA2FE114F10438
:103CA00031F0D7011396FC93EE93129741C0F09335
:103CB0002A04E09329043CC08D919C9111974817E8
:103CC000590708F4AC017D0112960D90BC91A02D0E
:103CD000B3CF809127049091280488159905E1F4C9
:103CE00046175707C8F480910C0290910D02009777
:103CF00041F48DB79EB74091100250911102841B80
:103D0000950BE817F907B0F4F0932804E093270423
:103D1000F901718360830CC0CB010CDE7C0100973C
:103D200049F0A801BE011BD0CE0199DEC70104C035
:103D3000CE0102C080E090E0DF91CF911F910F9102
:103D4000FF90EF90DF90CF90BF90AF909F908F90BB
:103D50007F906F90089581E090E0F89424C0FB017B
:103D6000DC0102C001900D9241505040D8F70895F7
:103D7000FC018191861721F08823D9F799270895AE
:103D80003197CF010895FB01DC018D9101908019DD
:103D90000110D9F3990B0895FB01DC0101900D92FC
:103DA0000020E1F7089511E0C3E4D1E000E005C090
:103DB000802FFE01B7DD2196011DC434D10780E0BC
:083DC0000807B1F7F894FFCFEA
:103DC800FFFFFFFF00803B450000964300002B04E7
:103DD8008000000000000D027701A6015302D70100
:103DE800B501C901000000006D063F06C805FE03C5
:103DF800E803B0038F035B033A03E402AC027431B7
:103E08003A002C74323A002C703A000D0A0065739F
:103E18000063616C006D6F7665006E6F742063617E
:103E28006C6962726174656400706F7300737064AA
:103E3800006163630065733A006E616E00696E66C7
:063E4800006F7666000029
:00000001FF
