:1000000043C1000072C1000070C100006EC1000059
:100010006CC100006AC1000068C1000066C1000038
:1000200064C1000062C1000060C100005EC1000048
:100030005CC100005AC1000058C1000056C1000058
:100040000C94590A0C94760B50C100004EC100006C
:100050000C94890B4AC1000048C1000052C700003F
:1000600044C1000069C500003EC500003EC100005B
:100070003CC100003AC1000038C1000036C1000098
:1000800034C1000032C1000030C100002EC10000A8
:100090002CC100002AC1000028C1000026C10000B8
:1000A00024C100000C9412090C942F0A1EC10000F8
:1000B0001CC100000C94420A6EC700000C94E808B2
:1000C00014C1000012C100000C94FB080EC1000016
:1000D0000CC100000AC1000008C1000006C10000F8
:1000E00004C10000C502C902CD02D102D502D90265
:1000F000DD020F0416041D0424042B0443043204FF
:1001000043043904ED05F005DF05E305E90527069D
:10011000F405F805FE05020606060C061006140690
:1001200027061A061E0622064E414E494E495459CC
:10013000494E46CDCCCC3D0AD7233C17B7D13877B2
:10014000CC2B329595E6241FB14F0A0000204100C8
:1001500000C84200401C4620BCBE4CCA1B0E5AAE12
:10016000C59D7400002100240027002A002D0030C6
:1001700000330001010000040107010A0100002210
:1001800000250028002B002E003100340002010061
:1001900000050108010B01000020002300260029B2
:1001A000002C002F003200000100000301060109AD
:1001B0000105050505070508080808020202020AEC
:1001C0000A080804040404010101010101010103FA
:1001D00003030303030303040707070C0C0C0C0CB5
:1001E0000C0C0C0202020206060606060606060BA8
:1001F0000B0B0B0B0B0B0B0102102020080810201F
:1002000040102040800201020108040201010204A2
:100210000810204080804020100804020180040261
:1002200001804020100804020108040201010204B8
:100230000810204080010204081020408000000ABD
:100240000B02090C0D0E080703040100000000005A
:10025000000000000000000000000000000000009E
:10026000000000000000000000121110000000005B
:10027000000000000000000000000000000000007E
:1002800000000000E917A01111241FBECFEFD1E23A
:10029000DEBFCDBF00E00CBF24E0A4EAB2E001C0A5
:1002A0001D92A934B207E1F712E0A0E0B2E0E4E861
:1002B000FFE300E00BBF02C007900D92A43AB10724
:1002C000D9F711E0C3E4D1E000E006C021970109AD
:1002D000802FFE010E94701DC234D10780E0080704
:1002E000A9F70E94B5110C94B11F8ACE0895CF9240
:1002F000DF92EF92FF920F931F93CF93DF936C01E6
:100300007A018B01C0E0D0E0CE15DF0589F0D8017D
:100310006D918D01D601ED91FC910190F081E02D60
:10032000C6011995892B11F47E0102C02196ECCFEC
:10033000C701DF91CF911F910F91FF90EF90DF9058
:10034000CF900895089580E090E00895FC01538DCA
:10035000448D252F30E0842F90E0821B930B54179F
:1003600010F0CF96089501970895FC01918D828D2C
:10037000981761F0828DDF01A80FB11D5D968C91F9
:10038000928D9F5F9F73928F90E008958FEF9FEF04
:100390000895FC01918D828D981731F0828DE80FC0
:1003A000F11D858D90E008958FEF9FEF0895FC017A
:1003B000918D228D892F90E0805C9F4F821B910947
:1003C0008F739927089580E293E0F1DF21E0892B74
:1003D00009F420E0822F0895FC01848DDF01A80F2D
:1003E000B11DA35ABF4F2C91848D90E001968F735D
:1003F0009927848FA689B7892C93A089B1898C917C
:1004000080648C93938D848D981306C00288F38941
:10041000E02D80818F7D80830895EF92FF920F936E
:100420001F93CF93DF93EC0181E0888F9B8D8C8DA0
:10043000981305C0E889F989808185FD23C0F62ECF
:100440000B8D10E00F5F1F4F0F731127E02E8C8D67
:10045000E8120BC00FB607FCFACFE889F989808152
:1004600085FFF5CFCE01B8DFF2CF8B8DFE01E80F0F
:10047000F11DE35AFF4FF0820B8FEA89FB898081DF
:10048000806207C0EE89FF896083E889F9898081ED
:100490008064808381E090E0DF91CF911F910F9184
:1004A000FF90EF900895CF93DF93EC01888D882320
:1004B000C1F0EA89FB89808185FD05C0A889B989D9
:1004C0008C9186FD0EC00FB607FCF5CF808185FFAD
:1004D000F2CFA889B9898C9185FFEDCFCE017CDF61
:1004E000E8CFDF91CF91089580E090E0892B19F05B
:1004F0006ADF811125C080E090E0892B41F080E027
:1005000090E0892B21F00E94000081111CC080E046
:1005100090E0892B41F080E090E0892B21F00E944F
:100520000000811113C080E090E0892BA1F080E0F1
:1005300090E0892B81F00E94000081110AC008958B
:100540000E940000D8CF0E940000E1CF0E9400006E
:10055000EACF0C9400000895CF93DF93DC0147703D
:10056000552766277727FA013197CD91DC911197AE
:10057000E730F10530F48827EE58FF4F8F4F0C9489
:10058000701DEC81FD8161E01BC0EC81FD8165E0A7
:1005900017C0EC81FD8164E013C0EC81FD8166E051
:1005A0000FC0EC81FD8162E00BC0EC81FD816AE04F
:1005B00007C0EC81FD8168E003C0EC81FD8169E04A
:1005C000CD01DF91CF911994CF93DF93EC01CB0153
:1005D000BA0126E030E040E050E00E94541D623055
:1005E00071058105910559F18CF46115710581053D
:1005F0009105F1F06130710581059105C1F5E88142
:10060000F9810480F581E02D65E02DC0643071052D
:100610008105910511F1D4F06530710581059105D1
:1006200031F5E881F9810480F581E02D66E01BC099
:10063000E881F9810480F581E02D64E014C0E8814F
:10064000F9810480F581E02D61E00DC0E881F98138
:100650000480F581E02D63E006C0E881F981048023
:10066000F581E02D62E0CE01DF91CF911994DF9109
:10067000CF9108954370552766277727DC01ED91C8
:10068000FC910480F581E02D423051056105710532
:1006900071F0433051056105710559F04130510544
:1006A0006105710511F065E005C066E003C06AE010
:1006B00001C069E01994CF93DF93EC01CB01BA013B
:1006C00023E030E040E050E00E94541D61307105AD
:1006D0008105910581F0623071058105910591F0E8
:1006E000672B682B692BC1F4E881F9810480F581BF
:1006F000E02D64E00DC0E881F9810480F581E02DF2
:1007000061E006C0E881F9810480F581E02D62E0B6
:10071000CE01DF91CF911994DF91CF91089543706D
:10072000552766277727DC01ED91FC910480F58140
:10073000E02D423051056105710571F043305105DE
:100740006105710559F0413051056105710511F0E0
:1007500062E005C063E003C061E001C060E019949D
:10076000CF93DF93EC01E881F9810480F581E02DDE
:100770008A81811102C060E001C062E0CE0119955A
:10078000E881F9810480F581E02D8A81811102C020
:1007900061E001C063E0CE0119958CA59DA5823072
:1007A000910538F0880F991F880F991F05970197B9
:1007B000F1F7E881F9810480F581E02D8A818111CA
:1007C00002C060E001C062E0CE01DF91CF911994D8
:1007D000CF93DF93EC0120E030E0A9016C897D89A3
:1007E0008E899F890E94D31C18161CF4E8A9F9A9C8
:1007F00002C0EAA9FBA9DF91CF9119940F931F932F
:10080000DC0113960C91139710E009301105D8F50F
:10081000F8018827E758FF4F8F4F0C94701DED911A
:10082000FC9111970084F185E02D29C0ED91FC9198
:1008300011970284F385E02D22C0ED91FC91119770
:100840000484F585E02D1BC0ED91FC911197068481
:10085000F785E02D14C0ED91FC9111970088F18986
:10086000E02D0DC0ED91FC9111970288F389E02DE8
:1008700006C0ED91FC9111970488F589E02DCD011A
:100880001F910F9119941F910F9108950E94891F34
:10089000FC0180819181009711F00C94DC1860E0DC
:1008A00070E0CB010895FC0124813581232B31F4C4
:1008B00021E061157105A1F0FB0108C0FC018081F8
:1008C00091816115710531F421E0FC01808188235B
:1008D00039F005C00E94A11F21E0892B09F020E01A
:1008E000822F08950F931F93CF93DF938C01EB0119
:1008F000FC01808191810097B1F068817981611557
:10090000710579F0428153812C813D814217530753
:1009100040F00E94AA1F8C819D81F80195838483F9
:1009200013C00E940D1E88819981F80191838083F4
:100930008A819B81938382838C819D81958384832B
:10094000198218821B821A821D821C82DF91CF912C
:100950001F910F9108950F931F93CF93DF93EC0195
:1009600088819981009729F02A813B8126173707D2
:1009700088F48B016F5F7F4F0E94A51E009761F086
:10098000998388831B830A832C813D81232B11F457
:10099000FC01108281E001C080E0DF91CF911F91C6
:1009A0000F910895EF92FF920F931F93CF93DF93D0
:1009B000EC017B018A01BA01CEDF288139818111E6
:1009C0000DC02115310519F0C9010E940D1E1982B3
:1009D00018821D821C821B821A8206C01D830C8312
:1009E000B701C9010E94AA1FCE01DF91CF911F91CB
:1009F0000F91FF90EF900895FC01118210821382F5
:100A00001282158214826115710549F0FB01019073
:100A10000020E9F73197AF01461B570BC3CF08956C
:100A2000BF92CF92DF92EF92FF920F931F93CF93DB
:100A3000DF937C016B01EA0189012417350720F45B
:100A40008D2FE901042F182F6DE472E0C701D4DF68
:100A5000D60114968D919C911597C817D907C0F5AA
:100A60008017910708F48C01D601ED91FC91119744
:100A7000E00FF11FB08010824D915C91BA016C0FB4
:100A80007D1F6115710559F0FB0101900020E9F708
:100A90003197AF01461B570BC70184DF13C0F70125
:100AA00080819181009711F00E940D1ED70111964F
:100AB0001C921E9215961C921E92149713961C92CD
:100AC0001E921297D601ED91FC91E00FF11FB082BA
:100AD000C701DF91CF911F910F91FF90EF90DF90B1
:100AE000CF90BF9008951F920F920FB60F921124CE
:100AF0000BB60F922F933F934F935F936F937F9318
:100B00008F939F93AF93BF93EF93FF9380E293E014
:100B100063DCFF91EF91BF91AF919F918F917F9196
:100B20006F915F914F913F912F910F900BBE0F905E
:100B30000FBE0F901F9018951F920F920FB60F9235
:100B400011240BB60F922F938F939F93EF93FF93E4
:100B5000E0913003F09131038081E0913603F09110
:100B6000370382FD12C09081809139038F5F8F73AC
:100B700020913A03821751F0E0913903F0E0E05EF2
:100B8000FC4F958F8093390301C08081FF91EF91D5
:100B90009F918F912F910F900BBE0F900FBE0F90D2
:100BA0001F90189590E0FC013197E231F10508F0B3
:100BB0004EC08827EE57FF4F8F4F0C94701D8091C9
:100BC00080008F7703C0809180008F7D80938000AC
:100BD000089580918000877FF9CF84B58F7702C018
:100BE00084B58F7D84BD08958091B0008F7703C058
:100BF0008091B0008F7D8093B00008958091900027
:100C00008F7707C0809190008F7D03C08091900006
:100C1000877F8093900008958091A0008F7707C010
:100C20008091A0008F7D03C08091A000877F80937A
:100C3000A0000895809120018F7707C08091200146
:100C40008F7D03C080912001877F809320010895CC
:100C50001F93CF93DF93282F30E0F901E35CFD4F22
:100C60008491F901E950FE4FD491F901EF54FE4F00
:100C7000C491CC23C1F0162F811194DFEC2FF0E04A
:100C8000EE0FFF1FE358FE4FA591B4918FB7F89474
:100C9000111105C09C91ED2FE095E92302C0EC9164
:100CA000ED2BEC938FBFDF91CF911F910895CF92E1
:100CB000DF92EF92FF920F931F93CF93DF93FC018C
:100CC0002381243041F0283031F0233031F02630B8
:100CD00021F012E003C014E001C013E0EC012896FB
:100CE000E12CF12CC62ED12C01E0C6010E2C02C045
:100CF000959587950A94E2F7688180FD6027FE014B
:100D000034978081A5DFFFEFEF1AFF0A2196E116E5
:100D100060F3DF91CF911F910F91FF90EF90DF90E3
:100D2000CF900895CF93DF9390E0FC01E950FE4F00
:100D30002491FC01EF54FE4F8491882361F190E0EF
:100D4000880F991FFC01ED59FE4FC591D491FC010C
:100D5000E358FE4FA591B491611109C09FB7F89473
:100D60008881209582238883EC912E230BC06230EA
:100D700061F49FB7F8943881822F8095832388830C
:100D8000EC912E2B2C939FBF06C08FB7F894E8816F
:100D90002E2B28838FBFDF91CF910895CF93DF93C0
:100DA000FC012381222329F1EC0161E08481BADF77
:100DB00061E08D81B7DF8B81843011F0883031F4B0
:100DC00061E08E81AFDF61E08F8106C0833011F07A
:100DD000863019F461E08E81A5DF8FA58F3F49F041
:100DE00061E0A0DF6EA581E068278FA5DF91CF913C
:100DF0002FCFDF91CF910895CF93DF93FC01238113
:100E0000222399F0EC010190F081E02D0480F5811E
:100E1000E02D60E019958FA58F3F39F061E082DF0A
:100E20006EA58FA5DF91CF9113CFDF91CF9108955C
:100E30003FB7F8948091D6029091D702A091D80242
:100E4000B091D90226B5A89B05C02F3F19F0019695
:100E5000A11DB11D3FBFBA2FA92F982F8827820F40
:100E6000911DA11DB11DBC01CD0142E0660F771F90
:100E7000881F991F4A95D1F708958F929F92AF923C
:100E8000BF92CF92DF92EF92FF926B017C01D0DF95
:100E90004B015C01C114D104E104F104E9F0C8DFA5
:100EA000DC01CB0188199909AA09BB09883E934046
:100EB000A105B10578F321E0C21AD108E108F108D3
:100EC00088EE880E83E0981EA11CB11CC114D104C9
:100ED000E104F10421F7DECFFF90EF90DF90CF9097
:100EE000BF90AF909F908F9008952FB7F894609126
:100EF000D2027091D3028091D4029091D5022FBF7B
:100F000008951F920F920FB60F9211242F933F93C3
:100F10008F939F93AF93BF938091D2029091D3020E
:100F2000A091D402B091D5023091D10223E0230FD9
:100F30002D3720F40196A11DB11D05C026E8230F11
:100F40000296A11DB11D2093D1028093D2029093ED
:100F5000D302A093D402B093D5028091D60290918F
:100F6000D702A091D802B091D9020196A11DB11D5E
:100F70008093D6029093D702A093D802B093D9025F
:100F8000BF91AF919F918F913F912F910F900FBE85
:100F90000F901F9018951F920F920FB60F92112469
:100FA0000BB60F92CF92DF92EF92FF920F931F93A7
:100FB0002F933F934F935F936F937F938F939F9361
:100FC000AF93BF93EF93FF932091260130912701B8
:100FD000C9013091210120E4232720932101D59AD2
:100FE0002091130330911403D901D09B05C08F3F8A
:100FF0000FE7900708F4C1C02091210126FFADC082
:101000002091190330911A032115310509F44FC0BD
:101010002130310509F054C00091CD021091CE026B
:101020002091CF023091D0024091150350911603C8
:101030006091170370911803480F591F6A1F7B1F97
:10104000401B510B620B730B409315035093160317
:101050006093170370931803C0901C03D0901D0376
:10106000E0901E03F0901F034091E2025091E302D2
:101070006091E4027091E5028C019D01041B150B47
:10108000260B370BC901B8010E94A41A9B01AC01C1
:10109000C701B6010E943A1C0E94A71C6093C902B6
:1010A0007093CA028093CB029093CC024CC0809381
:1010B000E2029093E302A093E402B093E50243C0FE
:1010C0000091CD021091CE022091CF023091D0023A
:1010D0004091150350911603609117037091180306
:1010E000480F591F6A1F7B1F401B510B620B730B6C
:1010F00040931503509316036093170370931803DE
:101100002091190330911A0327703327232BD9F428
:101110000091E2021091E3022091E4023091E50295
:101120004091C9025091CA026091CB027091CC02E9
:101130006C017D01C01AD10AE20AF30AC416D50671
:10114000E606F706E8F48091190390911A030196D8
:1011500090931A038093190322C09C01205C3346AC
:1011600030932901209328018093CD029093CE02E1
:10117000A093CF02B093D00212C0D90111963CCFF8
:101180008093E6029093E702A093E802B093E9020D
:101190001092730083E28ABB81E080931B03FF916E
:1011A000EF91BF91AF919F918F917F916F915F91DF
:1011B0004F913F912F911F910F91FF90EF90DF90F2
:1011C000CF900F900BBE0F900FBE0F901F901895F1
:1011D0001F920F920FB60F9211248F9310927300EB
:1011E00083E28ABB82E080931B038F910F900FBE36
:1011F0000F901F9018951F920F920FB60F92112407
:101200008F939F9380911303909114030196909371
:101210001403809313039F918F910F900FBE0F9033
:101220001F9018951F920F920FB60F9211240BB6B4
:101230000F92CF92DF92EF92FF920F931F932F9313
:101240003F934F935F936F937F938F939F93AF934E
:10125000BF93EF93FF932091A6003091A700C9019F
:101260003091A10020E423272093A100CD9A209162
:10127000060330910703D901C89B05C08F3F0FE7D4
:10128000900708F4C1C02091A10026FFADC02091B5
:101290000C0330910D032115310509F44FC02130A5
:1012A000310509F054C00091C5021091C602209189
:1012B000C7023091C8024091080350910903609120
:1012C0000A0370910B03480F591F6A1F7B1F401BB5
:1012D000510B620B730B4093080350930903609307
:1012E0000A0370930B03C0900F03D0901003E0909B
:1012F0001103F09012034091DA025091DB026091E9
:10130000DC027091DD028C019D01041B150B260B84
:10131000370BC901B8010E94A41A9B01AC01C70197
:10132000B6010E943A1C0E94A71C6093C1027093F0
:10133000C2028093C3029093C4024CC08093DA022D
:101340009093DB02A093DC02B093DD0243C00091D6
:10135000C5021091C6022091C7023091C802409187
:1013600008035091090360910A0370910B03480F21
:10137000591F6A1F7B1F401B510B620B730B40935D
:1013800008035093090360930A0370930B032091A1
:101390000C0330910D0327703327232BD9F40091D0
:1013A000DA021091DB022091DC023091DD024091E3
:1013B000C1025091C2026091C3027091C4026C01DB
:1013C0007D01C01AD10AE20AF30AC416D506E60660
:1013D000F706E8F480910C0390910D030196909329
:1013E0000D0380930C0322C09C01205C3346309394
:1013F000A9002093A8008093C5029093C602A093F1
:10140000C702B093C80212C0D90111963CCF809395
:10141000DE029093DF02A093E002B093E10210920B
:10142000720083E289BB81E080930E03FF91EF910C
:10143000BF91AF919F918F917F916F915F914F91EC
:101440003F912F911F910F91FF90EF90DF90CF90E0
:101450000F900BBE0F900FBE0F901F9018951F920C
:101460000F920FB60F9211248F931092720083E2A5
:1014700086BB82E080930E038F910F900FBE0F907A
:101480001F9018951F920F920FB60F9211248F93F1
:101490009F93809106039091070301969093070311
:1014A000809306039F918F910F900FBE0F901F9016
:1014B00018951F920F920FB60F9211240BB60F9230
:1014C000CF92DF92EF92FF920F931F932F933F9350
:1014D0004F935F936F937F938F939F93AF93BF933C
:1014E000EF93FF932091860030918700C9013091DE
:1014F000810020E4232720938100B59A2091BF0228
:101500003091C002D901B09B05C08F3F0FE7900713
:1015100008F4C1C02091810026FFADC02091BD021A
:101520003091BE022115310509F44FC0213031053B
:1015300009F054C00091B5021091B6022091B70293
:101540003091B8024091B1025091B2026091B30261
:101550007091B402480F591F6A1F7B1F401B510B2B
:10156000620B730B4093B1025093B2026093B302CB
:101570007093B402C090AD02D090AE02E090AF0282
:10158000F090B0024091B9025091BA026091BB0252
:101590007091BC028C019D01041B150B260B370BAF
:1015A000C901B8010E94A41A9B01AC01C701B60190
:1015B0000E943A1C0E94A71C6093A9027093AA0281
:1015C0008093AB029093AC024CC08093B90290938D
:1015D000BA02A093BB02B093BC0243C00091B50213
:1015E0001091B6022091B7023091B8024091B10239
:1015F0005091B2026091B3027091B402480F591F2A
:101600006A1F7B1F401B510B620B730B4093B1028F
:101610005093B2026093B3027093B4022091BD0262
:101620003091BE0227703327232BD9F40091B902E1
:101630001091BA022091BB023091BC024091A902E4
:101640005091AA026091AB027091AC026C017D01D5
:10165000C01AD10AE20AF30AC416D506E606F7064E
:10166000E8F48091BD029091BE0201969093BE0273
:101670008093BD0222C09C01205C334630938900D8
:10168000209388008093B5029093B602A093B7028E
:10169000B093B80212C0D90111963CCF8093A50235
:1016A0009093A602A093A702B093A80210926F0095
:1016B00083E286BB81E08093A402FF91EF91BF910A
:1016C000AF919F918F917F916F915F914F913F91DA
:1016D0002F911F910F91FF90EF90DF90CF900F907F
:1016E0000BBE0F900FBE0F901F9018951F920F9278
:1016F0000FB60F9211248F9310926F0083E286BB76
:1017000082E08093A4028F910F900FBE0F901F90E4
:1017100018951F920F920FB60F9211248F939F93DB
:101720008091BF029091C00201969093C002809375
:10173000BF029F918F910F900FBE0F901F90189531
:101740002F923F924F925F926F927F928F929F92D1
:10175000AF92BF92CF92DF92EF92FF920F931F93BF
:10176000CF93DF9300D01F92CDB7DEB71C01FC01F1
:10177000C088D188E288F38884859585A685B78559
:10178000C81AD90AEA0AFB0A648975898689978981
:101790009B01AC010E94051B4B015C01F101648DB2
:1017A000758D868D978D9B01AC010E94D61B9B0188
:1017B000AC01C501B4010E943A1C0E94A21CC114D4
:1017C000D104E104F104A1F46230710581059105B1
:1017D0000CF07CC0F10114A215A216A217A2148A63
:1017E000158A168A178A14AA15AA16AA17AAFFC05C
:1017F000F10104A915A926A937A91C141D041E046A
:101800001F0404F510161106120613064CF46C158D
:101810007D058E059F055CF52281211157C027C0EB
:10182000011511052105310509F450C06C157D0520
:101830008E059F050CF04AC0F1018281882309F4CE
:1018400045C039C01016110612061306FCF4002715
:10185000112798010C191D092E093F0960177107FE
:101860008207930724F4F1012281222379F19B015D
:10187000AC0188279927DC01821B930BA40BB50BC5
:10188000F10184AB95ABA6ABB7AB20C00115110538
:1018900021053105D9F08824992454018C189D081C
:1018A000AE08BF08681579058A059B057CF4F1012F
:1018B000828181110BC030952095109501951F4FA5
:1018C0002F4F3F4F04AB15AB26AB37ABF10184A8CC
:1018D00095A8A6A8B7A881149104A104B10491F415
:1018E00080AD91ADA2ADB3AD84AF95AFA6AFB7AFAC
:1018F00081E01C141D041E041F040CF080E0F101A3
:10190000828341C0F101C4ACD5ACE6ACF7ACA70111
:101910009601C701B6010E94D61B2B013C01C501EF
:10192000B4010E94A61A20E030E040E850E40E9492
:10193000051B20E030E040E85FE30E94D61B9B01DE
:10194000AC01C301B2010E943A1C9B01AC01C7016A
:10195000B6010E94D51B7B018C01F101E05CFF4FB9
:1019600060807180C280D3809301A6010E94D31C45
:10197000181614F073018601A701B801F10144AFF4
:1019800055AF66AF77AFFFEF8F1A9F0AAF0ABF0A56
:10199000F10184AA95AAA6AAB7AA24AD35AD46AD91
:1019A00057ADCA01B90129833A834B835C830E94F6
:1019B000A71CF10164A375A386A397A329813A818B
:1019C0004B815C8160E074E284E799E40E943A1CF8
:1019D000F101648B758B868B978B2281211107C057
:1019E000DC01CB01B058848B958BA68BB78B0F9005
:1019F0000F900F900F90DF91CF911F910F91FF905B
:101A0000EF90DF90CF90BF90AF909F908F907F909E
:101A10006F905F904F903F902F9008954F925F92FC
:101A20006F927F928F929F92AF92BF92CF92DF92EE
:101A3000EF92FF92CF93DF93EC016A017B0120E0EC
:101A400030E0A901C701B6010E94A01A87FF04C0B7
:101A5000F7FAF094F7F8F0948C8C9D8CAE8CBF8CD8
:101A6000A7019601C501B4010E94A01A882309F4B8
:101A700048C06CA97DA98EA99FA90E94A61A2B0116
:101A80003C01A7019601C501B4010E943A1C9B01CB
:101A9000AC01C301B2010E94051B0E94A21C6CABE9
:101AA0007DAB8EAB9FABA701960160E070E080E05C
:101AB00090E40E943A1C0E94DB1C26E53EE04DE2C9
:101AC0005FE30E94051B20E034E244E759E40E94F2
:101AD000051B68AF79AF8AAF9BAFCC8EDD8EEE8EE3
:101AE000FF8ECE01DF91CF91FF90EF90DF90CF90EE
:101AF000BF90AF909F908F907F906F905F904F902E
:101B00001FCEDF91CF91FF90EF90DF90CF90BF90ED
:101B1000AF909F908F907F906F905F904F900895BF
:101B20008AE899EAA6ECBFE480931C0390931D0316
:101B3000A0931E03B0931F0310921B0310921A036D
:101B400010921903109215031092160310921703A6
:101B50001092180310921403109213031092200194
:101B6000E1E2F1E01082109225011092240180E45C
:101B70009CE9909329018093280181E4808383E28A
:101B80008ABB809373000895CF92DF92EF92FF9209
:101B90008091230490912404A0912504B0912604FF
:101BA000892B8A2B8B2B09F450C042D96B017C0105
:101BB0008091270490912804A0912904B0912A04CF
:101BC000B701A601481B590B6A0B7B0B80912304BC
:101BD00090912404A0912504B09126044817590738
:101BE0006A077B0790F12091010480910B0490918A
:101BF0000C04A0910D04B0910E04222321F0019653
:101C0000A11DB11D03C00197A109B10980930B0467
:101C100090930C04A0930D04B0930E0440910B0418
:101C200050910C0460910D0470910E048FEF93E0BD
:101C30000E94FE03C0922704D0922804E092290457
:101C4000F0922A048FEF93E07BDD20E030E0A901E1
:101C500060911304709114048091150490911604FE
:101C60000E94A01A811118C081E0C0900F04D0908A
:101C70001004E0901104F090120440910B04509174
:101C80000C0460910D0470910E04C416D506E6068E
:101C9000F70619F480E001C081E0FF90EF90DF903B
:101CA000CF9008958AE899EAA6ECBFE480930F03E9
:101CB00090931003A0931103B093120310920E039C
:101CC00010920D0310920C03109208031092090356
:101CD00010920A0310920B0310920703109206034E
:101CE0001092A000E1EAF0E010821092A50010929C
:101CF000A40080E49CE99093A9008093A80081E46B
:101D0000808383E289BB8093720008950F931F93B1
:101D100000910F04109110042091110430911204CD
:101D2000061717072807390769F060930F047093A7
:101D3000100480931104909312048FEF93E01F918D
:101D40000F91FECC1F910F910895009769F0FC014F
:101D500001900020E9F73197AF01481B590BBC01F6
:101D600080E293E00C94770180E090E008958F92F8
:101D70009F92AF92BF92CF92DF92EF92FF928090AC
:101D8000130490901404A0901504B090160420E061
:101D900030E0A901C501B4010E94A01A882309F40A
:101DA0004AC0A5019401C501B4010E94051B6B0145
:101DB0007C0160911B0470911C0480911D04909122
:101DC0001E049B01AC010E94D61B9B01AC01C70104
:101DD000B6010E943A1C0E94A21C6B017C012FEFED
:101DE000C21AD20AE20AF20A20E030E0A901C501D3
:101DF000B4010E94D31C40910B0450910C046091DB
:101E00000D0470910E0418163CF4CB01BA016C0D50
:101E10007D1D8E1D9F1D06C0CB01BA016C197D0969
:101E20008E099F09FF90EF90DF90CF90BF90AF9009
:101E30009F908F906BCFFF90EF90DF90CF90BF90EF
:101E4000AF909F908F9008958F929F92AF92BF9284
:101E50000F931F93CF93DF93CDB7DEB7A1970FB644
:101E6000F894DEBF0FBECDBF19A2423008F44AE09D
:101E70008E010F5D1F4F842E912CA12CB12CA5013A
:101E800094010E94321DE62FB901CA0101501109C7
:101E9000EA3014F4E05D01C0E95CD801EC93232B37
:101EA000242B252B61F7C80150DFA1960FB6F894BB
:101EB000DEBF0FBECDBFDF91CF911F910F91BF90BD
:101EC000AF909F908F900895E0912003F0912103AF
:101ED0000190F081E02D682F80E293E01994CF9378
:101EE000DF93E7E4F2E08491E1E0F2E0D491EBEB00
:101EF000F1E0C491CC2391F081110E94D205EC2F26
:101F0000F0E0EE0FFF1FE956FE4FA591B491EC9162
:101F1000ED2381E090E021F480E002C080E090E0D9
:101F2000DF91CF9108958F929F92AF92BF92CF92FF
:101F3000DF92EF92FF920F931F93CF93DF938B016A
:101F4000D82FC92F20911304309114044091150407
:101F5000509116040E94A01A882309F460C0C09012
:101F60001704D0901804E0901904F0901A04460168
:101F70005701B7FAB094B7F8B094A5019401B8012D
:101F80008D2F9C2F0E94A01A87FD0DC0A7019601DE
:101F9000B8018D2F9C2F0E94D31C181634F06801B5
:101FA000ED2EFC2E02C07501640120E030E0A90195
:101FB000C701B6010E94A01A811109C01092230422
:101FC00010922404109225041092260420C0A70128
:101FD000960160E074E284E799E40E943A1C9F77DE
:101FE0000E94A71C6093230470932404809325040B
:101FF00090932604C1E020E030E0A901C701B601BA
:102000000E94D31C18160CF0C0E0C0930104C092CB
:102010001304D0921404E0921504F0921604DF9198
:10202000CF911F910F91FF90EF90DF90CF90BF90D5
:10203000AF909F908F900895CF92DF92EF92FF9292
:102040006B017C0120E030E0A9010E94A01A87FF0B
:1020500004C0F7FAF094F7F8F094A70196016091A4
:102060001704709118048091190490911A040E9429
:10207000A01A882309F456C0C0921704D0921804FD
:10208000E0921904F0921A04A701960160E074E24C
:1020900084E799E40E943A1C60933F0470934004E3
:1020A00080934104909342048091330490913404CE
:1020B000A0913504B0913604181619061A061B06AD
:1020C0008CF5609113047091140480911504909123
:1020D00016049B01AC010E94051B6B017C01609101
:1020E0001B0470911C0480911D0490911E049B019F
:1020F000AC010E94D61B9B01AC01C701B6010E9436
:102100003A1C0E94A21C60933304709334048093A1
:102110003504909336048FEF93E0FF90EF90DF90BB
:10212000CF900ECBFF90EF90DF90CF9008950F935C
:102130001F930E947507609328037093290380936F
:102140002A0390932B03E0912003F0912103028452
:10215000F385E02D80E293E0199597FF1FC00E9460
:102160007507009128031091290320912A033091CB
:102170002B03DC01CB01801B910BA20BB30B009155
:102180002403109125032091260330912703801703
:102190009107A207B307B8F28FEF9FEF1F910F913E
:1021A00008954F925F926F927F928F929F92AF921B
:1021B000BF92CF92DF92EF92FF926B017C01B42E1F
:1021C0009B01AC010E94191D882319F087E992E058
:1021D00027C026013701E89477F82FEF3FEF4FE74C
:1021E0005FE7C301B2010E94191D81110DC02FEFDD
:1021F0003FEF4FE75FE7C301B2010E94A01A181634
:102200001CF48BE992E00CC02FEF3FEF4FE75FE447
:10221000C701B6010E94D31C18167CF48FE992E026
:10222000FF90EF90DF90CF90BF90AF909F908F90F6
:102230007F906F905F904F9088CD2FEF3FEF4FE7EB
:102240005FECC701B6010E94A01A87FDE7CF20E02E
:1022500030E0A901C701B6010E94A01A87FF08C09B
:102260008DE232DE4C01F7FAF094F7F8F09402C0F8
:10227000812C912CA12C60E070E080E09FE3AB14F6
:1022800041F020E030E040E251E40E943A1CA39487
:10229000F6CF9B01AC01C701B6010E94D61B2B01F2
:1022A0003C010E94A71C6B017C010E94A41A9B01A7
:1022B000AC01C301B2010E94D51B2B013C014AE0D5
:1022C000C701B601C1DD7C01E80CF91CBB2021F07F
:1022D0008EE2FADDE80EF91EDB2CDD2019F120E09C
:1022E00030E040E251E4C301B2010E94051B2B0122
:1022F0003C010E94A71C4B01A12CB12C4AE0C50156
:10230000B401A2DDE80EF91EC501B4010E94A41AB1
:102310009B01AC01C301B2010E94D51B2B013C0102
:10232000DA94DBCFC701FF90EF90DF90CF90BF90A2
:10233000AF909F908F907F906F905F904F90089597
:10234000CF93DF93C9EFD3E02697888199810E94CC
:102350000D1E83E0CD3BD807B9F78091F90390912A
:10236000FA03DF91CF910C940D1ECF93DF93CDB77D
:10237000DEB764970FB6F894DEBF0FBECDBF78947A
:1023800084B5826084BD84B5816084BD85B582607A
:1023900085BD85B5816085BD80916E00816080932B
:1023A0006E00109281008091810082608093810094
:1023B00080918100816080938100809180008160A4
:1023C000809380008091B10084608093B1008091FF
:1023D000B00081608093B000809191008260809312
:1023E0009100809191008160809391008091900094
:1023F0008160809390008091A10082608093A10011
:102400008091A10081608093A1008091A0008160F3
:102410008093A000809121018260809321018091AE
:10242000210181608093210180912001816080934E
:10243000200180917A00846080937A0080917A00F4
:10244000826080937A0080917A00816080937A0024
:1024500080917A00806880937A001092C100E091A8
:102460003003F091310382E08083E0912C03F091FE
:102470002D031082E0912E03F0912F0380E18083E1
:1024800010923803E0913403F091350386E08083A5
:10249000E0913203F0913303808180618083E09189
:1024A0003203F0913303808188608083E0913203AE
:1024B000F0913303808180688083E0913203F09152
:1024C000330380818F7D808382E390E0A0E0B0E0E1
:1024D0008093240390932503A0932603B0932703AE
:1024E000E1DB1EDB61E08FE10E94920660E08FE19C
:1024F0000E94280661E08DE10E94920660E08DE175
:102500000E94280661E08BE10E94920660E08BE168
:102510000E94280661E089E10E94920660E089E15C
:102520000E94280662E08AE00E94920660E086E34C
:102530000E9492066EE170E080E090E00E943D070C
:10254000222423949E012F5F3F4F790196E0392E7C
:102550000E94750760930203709303038093040342
:102560009093050380900F0490901004A0901104A4
:10257000B090120400910B0410910C0420910D04F2
:1025800030910E0480169106A206B30619F020922F
:10259000010302C0109201030091FD021091FE029E
:1025A0002091FF0230910003DC01CB01801B910BD5
:1025B000A20BB30B883E9340A105B1050CF455C1A5
:1025C00071DB80910E03813089F0D8F3823009F0FD
:1025D00064C080E090E0A0E8BFEB8093F1029093AC
:1025E000F202A093F302B093F40257C06091080383
:1025F0007091090380910A0390910B038090DE0291
:102600009090DF02A090E002B090E1022091DA0207
:102610003091DB024091DC025091DD022D873E8734
:102620004F87588B91D72B013C01C501B4012D85F3
:102630003E854F855889621B730B840B950B84D79D
:102640009B01AC01C301B2010E943A1C4B015C0129
:102650009B01AC01DAD72DE33AE047EB5FEBD5D72E
:102660002B013C012CE53FE846E553E4C501B401EC
:10267000CCD79B01AC01C301B2010E94D61B23E35E
:1026800033E349E852E40E94D51B6093F102709352
:10269000F2028093F3029093F40276DA41DA8091A9
:1026A0001B03813089F0D8F3823009F064C080E0E8
:1026B00090E0A0E8BFEB8093ED029093EE02A09330
:1026C000EF02B093F00257C06091150370911603AA
:1026D00080911703909118038090E6029090E70292
:1026E000A090E802B090E9022091E2023091E3026A
:1026F0004091E4025091E5022D873E874F87588B29
:1027000023D72B013C01C501B4012D853E854F85A2
:102710005889621B730B840B950B16D79B01AC0178
:10272000C301B2010E943A1C4B015C019B01AC0148
:102730006CD72DE33AE047EB5FEB67D72B013C0109
:102740002CE53FE846E553E4C501B4015ED79B01A3
:10275000AC01C301B2010E94D61B23E333E349E875
:1027600052E40E94D51B6093ED027093EE028093B9
:10277000EF029093F00280917B00877F80937B0033
:1027800090E490937C0080917A00806480937A003A
:1027900080917A0086FDFCCF60917800809179006D
:1027A00070E0782B072E000C880B990BCFD62AE00F
:1027B00038E240EA5BE329D76093F9027093FA02AA
:1027C0008093FB029093FC0220E030E040E250E472
:1027D000ECD76093F5027093F6028093F702909322
:1027E000F8028EE392E0B1DA6091F1027091F202A8
:1027F0008091F3029091F40242E0D3DC82E492E013
:10280000A4DA6091ED027091EE028091EF02909156
:10281000F00242E0C6DC87E492E097DA6091F502CC
:102820007091F6028091F7029091F80242E0B9DCD3
:102830008BE492E08ADA1092F1021092F202109286
:10284000F3021092F4021092ED021092EE02109236
:10285000EF021092F0020E9475076093FD027093E0
:10286000FE028093FF029093000380E293E00E94B7
:10287000D701892B09F453C26DE472E0C7010E94AD
:10288000FC0455DC97FD1DC08A309105D1F08F8383
:1028900018860D811E810F5F1F4FB801C7010E946E
:1028A000AB04882371F329813A818D819E81BE0119
:1028B000695F7F4F820F931F0E94AA1F1E830D83A3
:1028C000E0CFB70189EF93E00E94720489819A8179
:1028D0000E940D1E18861F821A8619861C861B866A
:1028E0006091F9037091FA036115710541F040910F
:1028F000FD035091FE03CE0107960E94D20440E0F2
:1029000050E000E010E0AB84BC844A155B0598F40D
:102910008F8098846AE370E0C401840F951F4B8B0D
:102920005C8B0E94961F4B895C89009721F06C019B
:10293000C818D90803C0CC24CA94DC2CCA0101965B
:102940008C159D050CF59601BE01695F7F4FC7018F
:102950000E941005309EC001319E900D11248354B9
:102960009C4F8E159F0519F0B7010E947204898152
:102970009A810E940D1E0F5F1F4F063011051CF536
:10298000A6014F5F5F4FBFCFD7FEBDCF0630110509
:10299000D4F49501BE01695F7F4FC7010E94100505
:1029A000309EC001319E900D112483549C4F8E1592
:1029B0009F0519F0B7010E94720489819A810E94D3
:1029C0000D1E0F5F1F4F1093EC020093EB028F81DF
:1029D00098850E940D1E6EE472E08DEB93E00E94DC
:1029E00053048823D9F001301105C1F48AE892E03C
:1029F000ACD975DA4C01990FAA08BB08B7FE94C18F
:102A00008DE262DA66277727CB01681979098A098E
:102A10009B094AE019DA8BE492E097D961E572E00C
:102A20008DEB93E00E945304882309F456C08091F3
:102A3000EB029091EC02049709F04FC079C110921B
:102A40000B0410920C0410920D0410920E041092BC
:102A50000F0410921004109211041092120410929C
:102A600033041092340410923504109236041092FC
:102A7000230410922404109225041092260410922C
:102A800013041092140410921504109216048090EE
:102A9000080290900902A0900A02B0900B02C501B2
:102AA000B401CADAC501B4013EDA80900402909004
:102AB0000502A0900602B090070220E030E0A901D4
:102AC000C501B4013DD5882331F0B501A4018FEFD4
:102AD00093E00E940E0D2092EA0265E572E08DEB14
:102AE00093E00E9453048823C9F08091EB029091F7
:102AF000EC02029799F48091C3039091C40300976C
:102B000009F42FC25CD32091EA02222309F420C2E7
:102B1000072E000C880B990BF9D836D869E672E0BD
:102B20008DEB93E00E9453048823F9F08091EB022F
:102B30009091EC020297C9F48091C3039091C40371
:102B4000009709F42CC23BD32091EA02222309F416
:102B50001DC220910103072E000C880B990B211137
:102B600004C2D4D811D88111FDCF6DE672E08DEB8F
:102B700093E00E945304882339F08091EB029091F6
:102B8000EC02029709F40FC261E772E08DEB93E06B
:102B90000E945304882301F18091EB029091EC0292
:102BA0000297D1F483EC93E00E9448044B015C014E
:102BB00060930402709305028093060290930702CB
:102BC00020E030E0A901BCD4882331F0B501A40194
:102BD0008FEF93E00E940E0D65E772E08DEB93E0BE
:102BE0000E945304882399F08091EB029091EC02AB
:102BF000029769F46EE872E083EC93E00E9453045C
:102C0000882309F4E4C160E08FE10E9428066BE7A5
:102C100072E08DEB93E00E945304882309F47FC097
:102C20008091EB029091EC02029709F078C065E97F
:102C300072E083EC93E00E945304882361F060E02B
:102C40008DE10E94280660E08BE10E94280660E08A
:102C500089E10E94280668E872E083EC93E00E9414
:102C60005304882361F061E08DE10E94280660E052
:102C70008BE10E94280660E089E10E94280660E856
:102C800072E083EC93E00E945304882361F060E0DB
:102C90008DE10E94280661E08BE10E94280660E039
:102CA00089E10E94280662E872E083EC93E00E94CA
:102CB0005304882361F061E08DE10E94280661E001
:102CC0008BE10E94280660E089E10E94280664E802
:102CD00072E083EC93E00E945304882361F060E08B
:102CE0008DE10E94280660E08BE10E94280661E0E9
:102CF00089E10E94280667E872E083EC93E00E9475
:102D00005304882361F061E08DE10E94280661E0B0
:102D10008BE10E94280661E089E10E9428060E945A
:102D2000C40D0E94740214CC4AE0C501B40172CEF5
:102D30008FEC93E00E9448042B013C0189EC93E066
:102D40000E9448044B015C018091C3039091C4032D
:102D5000009709F4F9C033D28B01809101038111EE
:102D600006D8C301B20168D920E030E0A901C5014D
:102D7000B401E6D3882331F0B501A4018FEF93E0CD
:102D80000E940E0DACD8892B51F120910002309198
:102D900001024091020250910302CA01B901298B3C
:102DA0003A8B4B8B5C8B0E94860E29893A894B8922
:102DB0005C89DA01C9010196A11DB11D8093000251
:102DC00090930102A0930202B09303020E94C40DEB
:102DD00065E070E080E090E00E943D07D3CF109264
:102DE0000B0410920C0410920D0410920E04109219
:102DF0000F041092100410921104109212041092F9
:102E00003304109234041092350410923604109258
:102E10002304109224041092250410922604109288
:102E20001304109214041092150410921604C30196
:102E3000B20102D920E030E0A901C501B40180D37C
:102E4000882331F0B501A4018FEF93E00E940E0DAD
:102E500021E030E040E050E0209300023093010296
:102E600040930202509303023AD8892B31F56091C6
:102E700000027091010280910202909103020E946F
:102E8000860E0E94C40D8091000290910102A091D3
:102E90000202B09103020197A109B10980930002D7
:102EA00090930102A0930202B093030265E070E0E8
:102EB00080E090E00E943D07D7CF10920B04109263
:102EC0000C0410920D0410920E0410920F04109234
:102ED00010041092110410921204109233041092F4
:102EE0003404109235041092360410922304109288
:102EF00024041092250410922604109213041092B8
:102F000014041092150410921604B801110F880BC6
:102F1000990B0E94860E40910F045091100460910D
:102F200011047091120480910B0490910C04A091F3
:102F30000D04B0910E04481759076A077B0709F47E
:102F40007ECD0E94C40DE7CF60E070E0CB0104CFDE
:102F50008AE592E00E94A50E8BE492E00E94A50E05
:102F6000DDCD60E070E0CB01CECD698B7A8B8B8BB1
:102F70009C8B0E94B70E69897A898B899C890E94F3
:102F8000860E0E94C40D8111FCCFEFCD8AE592E040
:102F90000E94A50E8BE492E00E94A50EE6CD60E0B3
:102FA00070E0CB01D1CD83EC93E00E9448044B014B
:102FB0005C01609308027093090280930A02909367
:102FC0000B023AD8C501B4010E94930FDDCD61E038
:102FD0001BCECF93DF93109223031092220388EE2F
:102FE00093E0A0E0B0E08093240390932503A093A6
:102FF0002603B093270386E192E090932103809308
:10300000200385EC90E090932D0380932C0384ECB7
:1030100090E090932F0380932E0380EC90E09093A8
:1030200031038093300381EC90E0909333038093DD
:10303000320382EC90E0909335038093340386EC66
:1030400090E09093370380933603109239031092E7
:103050003A0310923B0310923C0388E292E0909373
:1030600000048093FF0381E08093020410920B041C
:1030700010920C0410920D0410920E0410920F0482
:103080001092100410921104109212041092130462
:1030900010921404109215041092160480E090E02F
:1030A000A0E8BFE38093170490931804A093190439
:1030B000B0931A0410921B0410921C0410921D0469
:1030C00010921E0480931F0490932004A093210467
:1030D000B093220410922304109224041092250429
:1030E0001092260421E030E030932C0420932B042E
:1030F0002FEF20932E041092270410922804109290
:10310000290410922A042BE0209303042CE020933E
:10311000040424E02093050425E020930604109283
:103120002D0410923304109234041092350410923E
:103130003604109237041092380410923904109219
:103140003A0410923B0410923C0410923D041092F9
:103150003E0480933F0490934004A0934104B093B5
:103160004204109201041092070410920804109275
:10317000090410920A048FEF93E00E94CE0640E00B
:1031800050E060E87FE38FEF93E00E940E0D6DE466
:1031900072E089EF93E00E94FC04CDEBD3E06DE494
:1031A00072E0CE010E94FC04269683E0C93FD80756
:1031B000B1F7DF91CF910895662777273BC01F9322
:1031C000FC0199278827BC01E89411911032E9F39A
:1031D000193010F01E30C8F31B3249F01D3241F493
:1031E000689405C012D0610F711D811D911D119150
:1031F00010531A30B8F33EF4909580957095619510
:103200007F4F8F4F9F4F1F910895592F482F372F72
:10321000262F660F771F881F991F660F771F881F3D
:10322000991F620F731F841F951F660F771F881FDA
:10323000991F08956F927F928F929F92AF92BF9243
:10324000CF92DF92EF92FF920F931F93CF93DF9372
:10325000EC017B016115710519F0DB018D939C93E5
:103260008E010F5F1F4F7880872D90E049D1892B09
:1032700011F0E801F5CFBDE27B1205C00F5F1F4FD3
:103280007980C1E008C0EBE27E1204C08E010E5FBF
:103290001F4F7980C0E06801F1E0CF1AD10843E008
:1032A00050E060E371E0C60133D1892BE9F4680195
:1032B00022E0C20ED11C45E050E06BE271E0C60195
:1032C00027D1892B21F4680187E0C80ED11CE114B5
:1032D000F10419F0D701CD92DC92C111F9C060E080
:1032E00070E080E89FE7FDC043E050E068E271E0F5
:1032F000C6010ED1892B51F4E114F10409F4EDC09B
:103300000E5F1F4FF70111830083E7C0680160E083
:1033100070E0CB0100E010E0F601D0EDD70DDA301F
:1033200050F52C2F2260622E2C2F2870C2FF05C072
:10333000211127C00F5F1F4F24C0222311F001501D
:103340001109A5E0B0E09B01AC0116D24B015C0174
:10335000880C991CAA1CBB1CC501B4016D0F711D02
:10336000811D911D6839A9E97A078A07A9E19A07A1
:1033700040F0C66005C0DE3F51F4C3FD44C0C860E4
:103380006C2EBFEFCB1ADB0A7080C62DC5CF2D2F58
:103390002F7D2531C1F540814D3211F4C06106C049
:1033A0004B3221F0319621E030E006C03296D60152
:1033B00011964C9122E030E0A0EDA40FAA3018F055
:1033C000E21BF30B20C040E050E04038BCE05B075C
:1033D0005CF49A01220F331F220F331F420F531F39
:1033E000440F551F4A0F511D3196DF0111972C9143
:1033F000A0EDA20FAA3048F3C4FF03C05195419538
:103400005109040F151FC1FF07C0E114F10421F099
:103410003197D701ED93FC9397D0C370C33019F067
:103420006B017C0106C06B017C01F7FAF094F7F8A0
:10343000F09420E030E0A901C701B60181D08823D3
:1034400009F443C017FF06C0119501951109C7E49F
:10345000D1E002C0CFE5D1E05E01B8E1AB1AB1081E
:103460004601BE2DAF2D90E2E92EF12C0E151F0561
:103470007CF0FE012591359145915491B4018B2F3B
:103480009A2FC3D04B01B82FA92F0E191F09EECFC9
:103490002497F594E794CA15DB0541F76401EB2EF8
:1034A000FA2E8E2D880F8F2D881F8F3F41F020E040
:1034B00030E0A901C701B60143D0811106C082E204
:1034C00090E09093440480934304C701B60109C07F
:1034D00060E070E080E89FEF04C060E070E080ECA6
:1034E0009FE7DF91CF911F910F91FF90EF90DF90B9
:1034F000CF90BF90AF909F908F907F906F900895E6
:103500009111E6C0803219F089508550D0F70895A6
:10351000FB01DC014150504088F08D9181341CF05A
:103520008B350CF4805E659161341CF06B350CF4C6
:10353000605E861B611171F3990B0895881BFCCFA7
:1035400040D008F481E00895E89409C097FB3EF468
:1035500090958095709561957F4F8F4F9F4F9923E0
:10356000A9F0F92F96E9BB279395F695879577955E
:103570006795B795F111F8CFFAF4BB0F11F460FF1E
:103580001BC06F5F7F4F8F4F9F4F16C0882311F076
:1035900096E911C0772321F09EE8872F762F05C08A
:1035A000662371F096E8862F70E060E02AF09A9525
:1035B000660F771F881FDAF7880F9695879597F91A
:1035C0000895990F0008550FAA0BE0E8FEEF1616B4
:1035D0001706E807F907C0F012161306E407F50707
:1035E00098F0621B730B840B950B39F40A2661F07B
:1035F000232B242B252B21F408950A2609F4A1401E
:10360000A6958FEF811D811D08950BD07BC06CD0D6
:1036100028F071D018F0952309F05DC062C0112424
:10362000A5C081D0A0F3959FD1F3950F50E0551F11
:10363000629FF001729FBB27F00DB11D639FAA2707
:10364000F00DB11DAA1F649F6627B00DA11D661F56
:10365000829F2227B00DA11D621F739FB00DA11D77
:10366000621F839FA00D611D221F749F3327A00D31
:10367000611D231F849F600D211D822F762F6A2FCD
:1036800011249F5750408AF0E1F088234AF0EE0F52
:10369000FF1FBB1F661F771F881F91505040A9F75F
:1036A0009E3F510570F017C061C05F3FECF3983E3C
:1036B000DCF3869577956795B795F795E7959F5FC6
:1036C000C1F7FE2B880F911D9695879597F9089560
:1036D00099278827089597F99F6780E870E060E050
:1036E00008959FEF80EC089500240A94161617069B
:1036F00018060906089500240A94121613061406E3
:1037000005060895092E0394000C11F4882352F045
:10371000BB0F40F4BF2B11F460FF04C06F5F7F4FFD
:103720008F4F9F4F089557FD9058440F551F59F0E4
:103730005F3F71F04795880F97FB991F61F09F3F9E
:1037400079F087950895121613061406551FF2CFC7
:103750004695F1DF08C0161617061806991FF1CF17
:1037600086957105610508940895E894BB2766273E
:103770007727CB0197F9089509D0A59F900DB49FA5
:10378000900DA49F800D911D11240895A29FB0015A
:10379000B39FC001A39F700D811D1124911DB29F85
:1037A000700D811D1124911D08955058BB27AA2723
:1037B0000ED0A8CF99DF30F09EDF20F031F49F3F8C
:1037C00011F41EF48ECF0EF4E095E7FB84CFE92FC1
:1037D000AADF80F3BA17620773078407950718F00A
:1037E00071F49EF5C2CF0EF4E0950B2EBA2FA02DEA
:1037F0000B01B90190010C01CA01A0011124FF279E
:10380000591B99F0593F50F4503E68F11A16F04098
:10381000A22F232F342F4427585FF3CF4695379597
:103820002795A795F0405395C9F77EF41F16BA0B5C
:10383000620B730B840BBAF09150A1F0FF0FBB1F0A
:10384000661F771F881FC2F70EC0BA0F621F731F53
:10385000841F48F4879577956795B795F7959E3FB0
:1038600008F0B3CF9395880F08F09927EE0F97953E
:10387000879508950CD046CF3EDF40F035DF30F01D
:1038800021F45F3F19F027CF511170CF2ACF4BDFC2
:1038900098F39923C9F35523B1F3951B550BBB2717
:1038A000AA2762177307840738F09F5F5F4F220FC4
:1038B000331F441FAA1FA9F333D00E2E3AF0E0E8BD
:1038C00030D091505040E695001CCAF729D0FE2F09
:1038D00027D0660F771F881FBB1F2617370748079B
:1038E000AB07B0E809F0BB0B802DBF01FF27935851
:1038F0005F4F2AF09E3F510568F0EDCE37CF5F3F16
:10390000ECF3983EDCF3869577956795B795F79538
:103910009F5FC9F7880F911D9695879597F9089530
:10392000E1E0660F771F881FBB1F621773078407CC
:10393000BA0720F0621B730B840BBA0BEE1F88F7DB
:10394000E095089504D06894B11110CF0895F3DE86
:1039500088F09F5790F0B92F9927B751A0F0D1F078
:10396000660F771F881F991F1AF0BA95C9F712C002
:10397000B13081F0FADEB1E00895F7CE672F782FED
:103980008827B85F39F0B93FCCF38695779567956E
:10399000B395D9F73EF490958095709561957F4FDA
:1039A0008F4F9F4F08950DDE08F48FEF089511F4A7
:1039B0000EF497CE42C0BFDED0F39923D9F3CEF3F5
:1039C0009F57550B87FF47D00024A0E640EA90019F
:1039D00080585695979528F4805C660F771F881F4E
:1039E00020F026173707480730F4621B730B840B4F
:1039F000202931294A2BA695179407942025312593
:103A00004A2758F7660F771F881F20F026173707B9
:103A1000480730F4620B730B840B200D311D411DE0
:103A2000A09581F7B901842F9158880F96958795B5
:103A30000895C7DD880B990B08959F3F31F0915091
:103A400020F4879577956795B795880F911D969582
:103A5000879597F9089591505040660F771F881FFA
:103A6000D2F70895A1E21A2EAA1BBB1BFD010DC0BF
:103A7000AA1FBB1FEE1FFF1FA217B307E407F5071E
:103A800020F0A21BB30BE40BF50B661F771F881FFA
:103A9000991F1A9469F760957095809590959B0190
:103AA000AC01BD01CF010895052E97FB16F40094DB
:103AB0000FD057FD05D0D6DF07FC02D046F408C072
:103AC00050954095309521953F4F4F4F5F4F08954A
:103AD00090958095709561957F4F8F4F9F4F08957A
:103AE000EE0FFF1F881F8BBF0790F691E02D1994F2
:103AF000CF93DF938230910510F482E090E0E09163
:103B00004704F091480420E030E0C0E0D0E0309776
:103B100011F14081518148175907C0F048175907E2
:103B200061F482819381209719F09B838A832BC053
:103B3000909348048093470426C02115310519F05D
:103B40004217530718F49A01BE01DF01EF0102800A
:103B5000F381E02DDCCF2115310509F1281B390B4C
:103B60002430310590F412968D919C911397611534
:103B7000710521F0FB019383828304C09093480474
:103B800080934704FD01329644C0FD01E20FF31F0C
:103B900081939193225031092D933C933AC0209107
:103BA000450430914604232B41F420910E023091BC
:103BB0000F02309346042093450420910C0230916B
:103BC0000D022115310541F42DB73EB74091100289
:103BD00050911102241B350BE0914504F0914604ED
:103BE000E217F307A0F42E1B3F0B2817390778F0D4
:103BF000AC014E5F5F4F2417350748F04E0F5F1F33
:103C000050934604409345048193919302C0E0E0B1
:103C1000F0E0CF01DF91CF9108950F931F93CF93E1
:103C2000DF93009709F48CC0FC0132971382128253
:103C300000914704109148040115110581F4208179
:103C40003181820F931F209145043091460428173B
:103C5000390779F5F0934604E093450471C0D80123
:103C600040E050E0AE17BF0750F412962D913C9102
:103C70001397AD012115310509F1D901F3CF9D014C
:103C8000DA013383228360817181860F971F821747
:103C9000930769F4EC0128813981260F371F2E5FC5
:103CA0003F4F318320838A819B8193838283452B7D
:103CB00029F4F0934804E093470442C01396FC9320
:103CC000EE931297ED01499159919E01240F351FF2
:103CD000E217F30771F480819181840F951F02969A
:103CE00011969C938E938281938113969C938E93CD
:103CF0001297E0E0F0E0D80112968D919C91139715
:103D0000009719F0F8018C01F6CF8D919C919801E4
:103D10002E5F3F4F820F931F209145043091460440
:103D20002817390769F4309729F410924804109243
:103D3000470402C013821282109346040093450484
:103D4000DF91CF911F910F9108956F927F928F9283
:103D50009F92AF92BF92CF92DF92EF92FF920F931A
:103D60001F93CF93DF93EC01009781F4CB01DF9198
:103D7000CF911F910F91FF90EF90DF90CF90BF9068
:103D8000AF909F908F907F906F90B2CEFC01E60F26
:103D9000F71F9C0122503109E217F30708F4A8C06D
:103DA000D9010D911C91119706171707A8F005303E
:103DB000110508F49BC0C80104978617970708F4FB
:103DC00095C002501109061B170B019311936D93B7
:103DD0007C93CF0122DF8AC05B01A01AB10A4C019B
:103DE000800E911EA0914704B091480440E050E03D
:103DF000E12CF12C109709F44AC0A815B905D1F5AA
:103E00006D907C901197630182E0C80ED11CCA149A
:103E1000DB0480F1A3014A195B096A0182E0C80E44
:103E2000D11C1296BC9012971396AC91B5E0CB16AC
:103E3000D10440F0B282A38351834083D9016D93B2
:103E40007C930AC00E5F1F4FC301800F911FF901C1
:103E500091838083EB2DFA2FE114F10431F0D70127
:103E60001396FC93EE93129741C0F0934804E093AD
:103E700047043CC08D919C9111974817590708F44D
:103E8000AC017D0112960D90BC91A02DB3CF809115
:103E900045049091460488159905E1F446175707A3
:103EA000C8F480910C0290910D02009741F48DB7F7
:103EB0009EB74091100250911102841B950BE81798
:103EC000F907B0F4F0934604E0934504F9017183D7
:103ED00060830CC0CB010CDE7C01009749F0A80187
:103EE000BE011BD0CE0199DEC70104C0CE0102C0C5
:103EF00080E090E0DF91CF911F910F91FF90EF90C4
:103F0000DF90CF90BF90AF909F908F907F906F90F9
:103F1000089581E090E0F89424C0FB01DC0102C028
:103F200001900D9241505040D8F70895FC018191C5
:103F3000861721F08823D9F7992708953197CF0163
:103F40000895FB01DC018D91019080190110D9F3D6
:103F5000990B0895FB01DC0101900D920020E1F71F
:103F6000089511E0C3E4D1E000E005C0802FFE0118
:103F7000B7DD2196011DC434D10780E00807B1F7F1
:043F8000F894FFCFE3
:103F8400FFFFFFFF00803B4500009643000049040B
:103F94008000000000000D027701A6015302D70142
:103FA400B501C90100000000FC06CE065706FE0359
:103FB400E803B0038F035B033A03E402AC027431F9
:103FC4003A002C74323A002C703A000D0A006573E2
:103FD4000063616C006D6F7665006E6F74206361C1
:103FE4006C6962726174656400706F7300737064ED
:103FF40000616363006D6F746F72006D6F646500C0
:104004003400380031360033320065733A00656E8F
:1040140061626C650031006E616E00696E66006FEE
:0440240076660000BC
:00000001FF
